:020000040800F2
:1000000090C6002001010008050100080701000852
:10001000090100080B0100080D01000800000000A4
:1000200000000000000000000000000011010008B6
:100030000F0100080000000053020008BDDD0008A9
:10004000B9E70008BDD000085DDE00085BD30008FA
:1000500065A6000849D3000871A4000875A400082B
:1000600077A4000879A400087BA400084198000840
:100070006598000867980008699800086B98000860
:100080006D9800086F9800083989000881E300081E
:1000900059E400084B9100084D9100087DA4000828
:1000A0005FDE000865DE000863DE000861DE000830
:1000B000C1DE0008C3DE0008C5DE00089DB80008E8
:1000C0008DB80008ABB80008A9B800087DD40008B6
:1000D0007FD4000819E2000879E200087BE20008FA
:1000E00073A4000859D3000861E300080000000071
:1000F0000000000000000000000000000000000000
:1001000004480047FEE7FEE7FEE7FEE7FEE7FEE7FE
:10011000FEE700001901000800F002F800F05AF8AC
:100120000AA090E8000C82448344AAF10107DA4552
:1001300001D100F04FF8AFF2090EBAE80F0013F04A
:10014000010F18BFFB1A43F001031847207001008C
:10015000407001000A444FF0000C10F8013B13F00E
:10016000070408BF10F8014B1D1108BF10F8015B10
:10017000641E05D010F8016B641E01F8016BF9D103
:1001800013F0080F1EBF10F8014BAD1C0C1B09D15A
:100190006D1E58BF01F801CBFAD505E014F8016BCC
:1001A00001F8016B6D1EF9D59142D6D3704700005E
:1001B0000023002400250026103A28BF78C1FBD870
:1001C000520728BF30C148BF0B6070471FB51FBD25
:1001D00010B510BD08F0A0FA1146FFF7F7FF0FF0B9
:1001E00051F908F0BEFA03B4FFF7F2FF03BC08F0C0
:1001F000BFFA000002480349034A044B704700005D
:1002000090BE002090C6002090C2002090C2002026
:10021000EFF3108072B6704780F31088704724485F
:100220004FF0FF010170002080F309881D48012173
:10023000017020484FF08051016062B6FEE71D4812
:100240004FF08051016070471A484FF080510160B3
:100250007047EFF3098028B1203880E8F00F124989
:100260000968086000B50A4880475DF804EB0B4850
:100270000B490A7802700C480C490A680260106841
:1002800090E8F00F203080F309884EF0040E70479C
:100290003BC9000851C4000852020020540200204B
:1002A0005502002057020020740200207C0200202A
:1002B00022ED00E004ED00E072B6704762B67047D0
:1002C000EFF3108072B6704780F31088704700001B
:1002D00010B50022C0F30B00B0F5006F02DDA0F5F1
:1002E00000600122B0F5806F01DDC0F50060831170
:1002F000FA4C00F03F0034F81310C0F140004143C5
:10030000402806D004EB43035B88C0F1400003FBA8
:100310000011203189094842002A00D1084610BD49
:1003200000F58060D4E7EE4B1A7D012A02D19A6D68
:1003300052681047521E02EBD272521004F08AB972
:100340002DE9F84F141A05465F1A884691469B46D8
:100350004FF0000A54EA070004D141462846BDE8A0
:10036000F84FE0E7204600F025FA0646384600F050
:1003700021FA86420ADA20463C4607462846454688
:1003800080464846D94683464FF0010A204600F091
:1003900011FAA04203D064427F424D46D84604EB96
:1003A000D4704FEA6009002F01DAC9F10009DFF8C3
:1003B00030B300269BF81600C8B914E007FB06907E
:1003C00090FBF4F04044BAF1000F06D1DBF858106E
:1003D000AB194A680146184603E0DBF85820A91912
:1003E00052689047761CA642E8DDBDE8F88F19E018
:1003F00007FB069090FBF4F040440090304600F07C
:100400001EFA70B9BAF1000F05D1DBF85810A8191F
:100410004A68009904E0DBF85800A919426800987E
:100420009047761CA642E3DDDFE72DE9FF4704464F
:10043000AB481646027D0D469846012A07D1434631
:1004400032462946204604B0BDE8F04778E7A01BB5
:10045000A5EB080150EA010368D0A2F1010900F000
:10046000ADF900F5806C00F50060FFF731FF00FB8F
:1004700009F76046FFF72CFF00FB09F0002F04DAB4
:10048000C7F500718912494202E007F50077B912F9
:10049000002804DAC0F500708012404202E000F546
:1004A00000708012002904DD4A1C02EBD272521047
:1004B00003E001EBD1725210491E01EBD1714B10D8
:1004C000002804DD411C01EBD171491003E000EB71
:1004D000D0714910401EA718ADF800706F18ADF824
:1004E0000270E71A00EBD0704010ADF804702F1ABC
:1004F000F31AADF80830A8EB0000ADF80A00B01808
:10050000ADF80C0008EB0100ADF80E000023ADF8CB
:1005100006701A460421684600F0BFFA29462046B4
:1005200000F0C8F94146304600F0C4F9BDE8FF8745
:100530002DE9F04104460D4616461F4600F05CFFCB
:100540006749086C496C044406440D440F4400207C
:1005500002F0D9FE07E03B46324629462046FFF727
:1005600064FF02F0A9FE0028F5D1BDE8F04100F0DB
:100570003BBF70B55A4C05460E46B4F92810B4F985
:10058000260033462A46FFF750FFE584268570BDD6
:10059000534AD084118570472DE9F0410D46B0F9DA
:1005A000021006460446B0F9000017469846194462
:1005B0001044FFF7EDFF08E0B4F9060000EB080176
:1005C00034F9040F3844FFF7D4FF6D1E002DF3DC1F
:1005D000B4F90010B6F90000814205D1B4F9021057
:1005E000B6F90220914207D0B6F90220384402EB56
:1005F0000801BDE8F041BCE7BDE8F0812DE9F0411C
:1006000006460F4614461D4600F0F6FE3448016CBF
:10061000406C0C440544002002F075FE07E02B46B8
:10062000224639463046FFF7B7FF02F045FE002864
:10063000F5D1BDE8F04100F0D7BE70B505460C46D7
:1006400000F0DAFE2648C18C2944C184018D214482
:100650000185BDE8704000F0C7BE70B504460D4688
:1006600000F0CAFE002002F04EFE60B11C4EB6F94A
:100670002810B6F926004B190219FFF7D6FE02F032
:100680001BFE0028F3D129462046FFF7D6FFBDE820
:10069000704000F0A9BE70B505460E4600F0ACFEF5
:1006A0000F4C206C0544606C0644002002F02BFEC9
:1006B00009E0B4F92810B4F9260033462A46FFF7BA
:1006C000B4FE02F0F9FD0028F3D131462846FFF7C9
:1006D0005FFFBDE8704000F087BE000034100108E5
:1006E000F4B9002070B505460C4600F085FE74494B
:1006F000086C496C28442144FFF74AFFBDE870406C
:1007000000F072BE2DE9FC4106460C46154698469F
:1007100000F072FE6A4A107D116C526C4F19401E37
:100720000E44311AADF8001039181444ADF8041015
:10073000211A02EB08052844ADF80600ADF80210B6
:10074000684602F0E0FD15E03A462146304604F0E6
:100750009DF93A462946304604F098F96A1E611C14
:10076000304600F03BFF6A1E611C384600F036FF41
:1007700002F0A2FD0028E7D100F036FEBDE8FC81C2
:1007800070B504460D4600F037FE4D48016C406CD4
:100790000C440544002002F0B6FD05E02946204641
:1007A000FFF7C1FD02F088FD0028F7D1BDE87040D9
:1007B00000F01ABE002800DC4042704710B500224D
:1007C000002801DA01224042002902DA42F0020246
:1007D0004942814204DD0B460146184642F00402BC
:1007E000890200EBD07301EB630191FBF0F0801004
:1007F000031100F00F00334CC0F1100134F9130065
:100800004843102907D004EB4303B3F90230C1F188
:10081000100103FB010008304FEAE07100EB11709A
:100820004FEA2010510701D5C0F58060D10701D0F3
:10083000C0F50060910701D5C0F5805010BD20497A
:100840000122897D012915D002291ED0032926D035
:1008500004292DD1182190FBF1F201FB12000C2884
:1008600006DBA0F11001022902D3143802281FD29E
:1008700001207047801DC11700EB117121F00F019D
:10088000401A0C2809DB002207E0C11700EB917128
:1008900021F00301401A0228F5DA104670471421AE
:1008A00090FBF1F201FB12000C28E1DB1038DDE7D0
:1008B00000207047024A527D002A00D133E570477C
:1008C000F4B90020561001080B88134403808B886C
:1008D0009B1A83804B8813444380C988891AC1803E
:1008E000704770B5054600F087FD284600F029FCEA
:1008F000040006D0204600F032FC2A46002103F016
:1009000097F900F071FD204670BD000070B50446F7
:1009100000F072FD2A4A2B4815680CB1002101E055
:100920002849091D0161146000F05EFD284670BD74
:100930002DE9FF470C9E07460D469046994646B95D
:100940004B4642462946384604B0BDE8F04703F01E
:10095000D0BA002468462146224606C000F04CFD6D
:10096000B5B108222946684607F087FD0822694686
:10097000154807F082FD284603F0ACF8040007D0C4
:100980002246294602A803F02AF902A803F0A2F899
:100990003046FFF7BBFF05467168684688474B46FF
:1009A00042466946384603F007FA204603F092F8BB
:1009B0002846FFF7ABFF00F017FDBDE8FF870000FA
:1009C00050030020F4B90020FC0200202DE9FC4176
:1009D00004460D46164600F00FFD104F386C796C3A
:1009E000054406440C44ADF80050ADF80460ADF881
:1009F0000240ADF80640684602F085FC07E0B86D9D
:100A00003246036821462846984702F055FC0028E4
:100A1000F5D100F0E9FCBDE8FC810000F4B900204C
:100A20007CB504460D46164600F0E6FC0E48016C07
:100A3000406C0C4405440644ADF80040ADF8044059
:100A4000ADF80250ADF80660684602F05CFC06E0C6
:100A500032462946204600F0C1FD02F02DFC002858
:100A6000F6D100F0C1FC7CBDF4B9002030B5894D51
:100A70002B680C2B10DA884C190009D004EB4102CA
:100A800032F9022C824203DB24F81120491EF5D1F1
:100A900024F811005B1C2B6030BD2DE9FE4F06468B
:100AA00040F6FF746042894617469A46002101903D
:100AB0000BE006EB8100B0F90200A04200DA044628
:100AC000019A904200DD0190491C4945F1DB7348D1
:100AD000006970B1B0F90610019AA1EB0A019142C8
:100AE00000DA0191B0F90210A1EB0A00A04200DD8A
:100AF0000446A9F101000290A7E04FF00008DFF8DA
:100B000094B14546CBF800807EE0029940468D4284
:100B100000DA681C06EB850EBEF9021006EB8003B6
:100B2000B3F902208C46A14239D1A24213D15B4ACB
:100B300036F9251036F92000926DCB193844D2F8D9
:100B400000C004EB0A01834202DA0246184600E0C4
:100B50001A46E04757E0284600230BE0411E08B93B
:100B6000A9F10101084606EB8101B1F90210A14289
:100B700004D15B1C02998B42F0DB2146A14242D09A
:100B8000091B36F92500121B51403AD4434A384418
:100B9000926D04EB0A0113680246984733E0A242C3
:100BA00031D001DBA14203DDA1422CDBA2422ADCD1
:100BB000614694450ADC0846A14224DC1146A24263
:100BC00021DBBEF900C0B3F9002008E01046A242C4
:100BD00019DCA14217DBB3F900C0BEF90020231ACB
:100BE000A2EB0C025A43002AA1EB000302DD02EB48
:100BF000630202E0A2EB6302521C081A92FBF0F0BF
:100C00006044FFF733FF6D1C4D45FFF67EAF04EBEC
:100C10000A00009000208046054611E01E49B8F108
:100C2000000F31F915B007D01C4907EB0B02896D95
:100C300038440B680099984788F0010858466D1CA5
:100C4000144909688D42E9DB641C019884427FF7EE
:100C500054AFBDE8FE8F2DE9F04106460F4614461D
:100C60001D4600F0C9FB0D48016C406C0C44054466
:100C7000002002F048FB07E02B462246394630466A
:100C8000FFF70BFF02F018FB0028F5D1BDE8F0419B
:100C900000F0AABB040300208CA20020F4B90020BD
:100CA00010B500F0A9FB02F075FF044600F09CFBB4
:100CB000204610BD10B500F09FFB0348847D00F076
:100CC00093FB204610BD0000F4B9002010B5044687
:100CD00000F092FB0F488484002400F085FB20463E
:100CE00010BD10B5044600F087FB0A484484002478
:100CF00000F07AFB204610BD70B505460C4600F0AA
:100D00007BFB044845840025848400F06DFB284665
:100D100070BD0000F4B9002010B500F06DFB124862
:100D2000047D00F061FB204610BD10B500F064FBAF
:100D30000D48447D00F058FB204610BD70B50546B7
:100D400000F05AFB0848047D057500F04DFB204675
:100D500070BD70B5054600F04FFB0348447D4575F6
:100D600000F042FB204670BDF4B9002010B50446E7
:100D700000F042FB204603F0D3FFBDE8104000F036
:100D800033BB10B5044600F037FB204603F0D4FF18
:100D9000BDE8104000F028BB70B5054E0446B569AB
:100DA00000F02AFB04B1B46100F01EFB284670BDC0
:100DB000F4B9002070B5054600F01EFB0348847DA1
:100DC000857500F011FB204670BD0000F4B90020CD
:100DD00070B5054600F010FB0348B0F92C4085853E
:100DE00000F002FB204670BDF4B9002070B5054646
:100DF00000F002FB0348B0F92A40458500F0F4FA00
:100E0000204670BDF4B9002030B40246704C0B4649
:100E1000401C07D0581C05D0A068411C02D0E168D6
:100E20004D1C02D14FF0FF300146C4E9022330BC13
:100E300003F006BA66480069704765484069704724
:100E4000634840F62B71283001608E21416040F6E6
:100E50006F61816040F22111C1607047F0B5059E5D
:100E600040F2DF1408B140F20F149D1B00D56D4213
:100E7000142D04DB8D1A00D56D42142D01DA0120EA
:100E8000F0BDF51A4E42521A6E43514F96FBF2F6E0
:100E90002837611A4D4395FBF2F11E4447F8306044
:100EA000194407EBC00041600020F0BD484B10B56D
:100EB000283353F8304003EBC0000C6040681060EA
:100EC00010BD002800DA4042704710B50AF084FBDC
:100ED00084B20AF081FB81B2601AFFF7F2FF3C4A4C
:100EE00080B21378984204D86018400850800120DE
:100EF00010BD002010BD10B50AF0A8FB84B20AF0A6
:100F0000A5FB81B2601AFFF7DCFF314A80B213788B
:100F1000984204D8601840089080012010BD00203D
:100F200010BD70B52A4D2A4C2835D5E900018842FC
:100F300002DAC4E9060101E0C4E90610D5E90201BC
:100F4000884202DAC4E9080101E0C4E908106078C7
:100F500050B9FFF7D0FF012839D1A08860610AF0AD
:100F60003AFB6078401C31E0FFF7AFFF01282ED13B
:100F7000608820610AF02EFBD4E9050221699042C5
:100F800008DBE269904205DC226A914202DB626A78
:100F9000914203DD4FF0FF30014614E02A68801AC9
:100FA00000EB4013C3EB40206B689A1A90FBF2F3FE
:100FB000AA68881AC0EB001101EB0020E968891AC1
:100FC00090FBF1F11846FFF71FFF0020607070BD25
:100FD000080300202DE9F04780464FF0FF3900203C
:100FE000BE4F1BE037F81200498806EB4605014466
:100FF00037F91500411A0CB244450EDA6CB1B84904
:10100000014407EB4500B0F90220081B07F07AFA0B
:1010100037F81500001B27F81500304600EB40029A
:1010200007EB42010E79002EDCD100EB400107EB0B
:10103000420237F91110B2F90220114441F288320C
:10104000521A424500DB81460FFA89F0BDE8F0876D
:10105000A4489D214160816041F28831C1810182B3
:101060000021016081819D4804224280018001713C
:101070009D490120087070472DE9F041044600F0B9
:1010800027F9E41C24F00300DFF8588204B2B8F911
:101090000E00A04218DB914E012000EB400106EB50
:1010A0004101498809B905B203E0401C9E28F4DBE0
:1010B00000254DB1204600F0E0F8411C07D1204644
:1010C000FFF788FF411C02D10020BDE8F08100EB52
:1010D000400236F8121006EB420CBCF8022005EB79
:1010E00045078B189CF8041006EB4702548026F83D
:1010F0001730117121B101EB410106EB41014D7136
:1011000050718CF80450D8F800004146401CC8F8D3
:101110000000D8F80400401EC8F80400D8F80820E1
:10112000824200DD8860888920448881C889001B4C
:1011300000B2C881B1F91020824200DD0882284641
:10114000C3E710B5040000D110BD00F055F92046EA
:10115000FFF792FF044600F047F9204610BD002833
:1011600006D05E4900EB400031F910005C490844AC
:10117000704710B500F0ACF85A48B0F90E0010BD39
:1011800070B5002400F038F900F0A2F80021534AAD
:101190000DE032F813106B88194400EB400332F86D
:1011A0001330591A09B2A14200DD0C46014601EB89
:1011B000410302EB430528790028EAD101EB410005
:1011C00002EB430132F810004988084441F28831AB
:1011D000081A00B2A04200DD044600F005F92046DE
:1011E00070BD002806D03D4900EB400001EB4000F7
:1011F000B0F90200704710B5040008D000F0FCF808
:10120000204600F013F8BDE8104000F0EDB810BD26
:1012100010B5044600F0F0F8B4F90000FFF7EBFF5A
:1012200000202080BDE8104000F0DEB82B4A10B549
:1012300000EB400002EB4001B1F9020000281BD096
:10124000284BDC890444DC819C89201A9881002089
:1012500048800879497901EB410402EB440420718C
:1012600020B100EB400002EB400041715868401C87
:1012700058601868401E186010BD30B50021174C2A
:101280000CE034F91330B5F902502B4402EB42055F
:1012900034F91550EB1A834215DA114601EB41037C
:1012A00004EB43052A79002AEBD101EB410204EB60
:1012B000430334F91220B3F902301A4441F288335F
:1012C0009A1A824201DB08B230BD4FF0FF3030BDC8
:1012D00005480078002800D1BAE670472CB60020F7
:1012E000A4A20020E0B90020400300202DE9FC4129
:1012F00004460D4616461F4600F07EF8042003F013
:1013000097FB33498046086C496C044406440D44FD
:101310000F44ADF80040ADF80460ADF80250ADF8F0
:101320000670684601F0EFFF07E03B46324629466B
:10133000204603F0C6FB01F0BFFF0028F5D1404670
:1013400003F076FB00F050F8BDE8FC8110B50021F9
:101350000846FFF7D1FC40F6FF725042BDE810404E
:1013600013460146C2E770B51A492E2008700AF0EC
:10137000B3F91948164C0068251D2561A064201D8D
:1013800003F0F8FC1548A06515482561A06101200F
:10139000207504F059F9A087032084F85C006FF0F1
:1013A000704020636063002003F0BAFC6FF07F4060
:1013B00003F0C2FC0B48E06100F066F803F08FFC1C
:1013C000044602F086F900F065F8204670BD000082
:1013D000F4B9002041030020000400207810010827
:1013E00074170108B046010836494868401E486035
:1013F00001D10AF093B9704770B5324E706820B1D0
:101400000AF062F9B168884204D00AF07DF90AF066
:101410005BF9B0607068401C7060012833D1002413
:10142000294D0AF051F904EBC40101EB041155F800
:10143000211081420BD031B904EBC40101EB04113E
:1014400045F8210003E0641C042CEADB002430682A
:10145000844218D0002815DB00EBC00101EB00101E
:1014600005EB8000001D6022184907F08DF804EBA1
:10147000C40000EB041005EB8001091D6022134835
:1014800007F082F8346070BD0E494FF0FF300860FD
:101490000AF02CB92DE9F04100240B4E254604EB4F
:1014A000C40000EB041706EB8700001D602207490B
:1014B00007F06AF8641C46F82750042CEFDBBDE8FF
:1014C000F08100005C03002054BA0020F4B9002031
:1014D0002DE9F041074640480E4614461D4650F897
:1014E00022000EF0B7FF39460EF0C8FF4FF07C51D6
:1014F0000EF018FE0EF0EAFD0DF012FF0EF076F879
:101500003DB10EF073FF22463146BDE8F04103F0D5
:1015100028BA0EF06BFF22463146BDE8F04103F0D9
:1015200016BA0023D4E770B505460C460EF05EFFF0
:1015300002F0C6FB05F1FF41C0B2B1F17C5F01D200
:10154000401CC0B201190CB1012000E00020084489
:10155000C1B222462846BDE870400023B8E770B506
:1015600004460D460EF042FF02F0AAFB281A401E68
:1015700004F1FF41B1F17C5F00D2401E002800DA87
:101580000020C2B229462046BDE8704000239FE7F4
:1015900001239DE770B504460D460EF027FF02F0CB
:1015A0008FFB04F1FF41C0B2B1F17C5F01D2401C5E
:1015B000C0B2B4F5000F01DB401CC0B241190DB13F
:1015C000012000E000200844C1B22A462046BDE8C0
:1015D000704001237CE700008846010830B40D4CC0
:1015E000B4F90430834213DCB4F9083083420FDBD2
:1015F000B4F906308B4200DD1946B4F90A30934243
:1016000000DA1A468A4203DBA36C5B6930BC1847D8
:1016100030BC7047F4B9002010B5C38842880188F7
:101620009B1A84880B44611A83801144C18010BDC9
:101630007CB50D460446002168460A4606C0684649
:1016400004F026F803F0B0FB461E03F0B0FBBDF932
:101650000420411EB24201DDADF80460BDF9060070
:10166000884201DDADF80610BDF900202968206828
:1016700011442160BDF90610081A2860A2482168AB
:10168000B0F900201144B0F90220891A2160B0F9A4
:1016900006202968BDF902301144BDF90620B0F9D1
:1016A0000000D21A891A084428607CBD2DE9FF4F3A
:1016B00089B00A991A9EC818401E069009990B987D
:1016C0009B460844401E07900025DDF860A00AA94B
:1016D00009A8FFF7ADFF06A907A8FFF7A9FF16980D
:1016E000012854D11798012851D1884A0698B2F997
:1016F0000610814203DD081A0B99081A0B90B2F903
:101700000A100A9881420EDA451A0B99491B0B916F
:10171000BAF1010F07D125F0070106EBE506401AE3
:1017200005F007050A90BBF1000F2DDDB2F90800A6
:101730000799884202DA081AABEB000BB2F90400F1
:101740000999884207DD401A199A014400FB026694
:10175000ABEB000B09910B98002815DDDDE909784A
:1017600000240FE0BAF1010F09D11B9B0B9ACDE9C0
:10177000002338192B463246414600F05FF819988D
:10178000641C06445C45EDDB0DB0BDE8F08FCAF18A
:101790000800039009980590002004904BE01799E9
:1017A00005985A4A08440890401E0290B2F9041065
:1017B000814238DC1046B0F908000599884232DBD6
:1017C0000024B0462746DDF8289029E014B918F81F
:1017D000015B08240399A4EB0A0435FA01F005FA29
:1017E0000AF5EDB203D14949097B890714D4474969
:1017F000498801911B9909B131F8100043494B46C2
:1018000048801699029AA9EB0101491C059803F03A
:1018100058F93E490198488016997F1CA9EB0109A7
:101820000B988742D2DB0498401C049008980590DE
:101830001998064404985845B1DBA5E72DE9FF5FE8
:10184000DDE90E70CE1A3149B0F80080B0F8029090
:10185000087B15461C4610F003004FF0800206D0AE
:10186000012832D0022819D19246884618E09246C3
:101870008B4628782AFA04F14A46084200D14246AB
:10188000DBF848003146436A00989847761E641C8E
:10189000082C01D100246D1C7F1EEAD1BDE8FF9FFA
:1018A00028782AFA04F1084206D0D8F848004A46B7
:1018B000436A314600989847761E641C082C01D173
:1018C00000246D1C7F1EEBD1E8E7914688464FF659
:1018D000FF7A287829FA04F108420BD031460098A3
:1018E0000AF08BFBAAEB0002D8F848003146436AA5
:1018F00000989847761E641C082C01D100246D1CAA
:101900007F1EE6D1CAE70000FC020020F4B90020E7
:101910002DE9F0430446E68C87B008464FF00009F5
:10192000C6F3002503F08EFD08B12F4600E0022724
:10193000206CFFF731FAB4F9480010B1FFF70FFC43
:10194000814605A802F0A0FBDDE90501CDE9030110
:101950002DB9206A00688047206A42690DE00020A6
:1019600003F0EAF9BDF91A30BDF91820BDF91410D9
:10197000BDF91600FEF7C6FE012203A903A8FEF773
:10198000A3FF04EB87008046806A03F0C9F9D8F80A
:10199000340003F0D1F903A802F09CF8FFF7D6FC5D
:1019A000022F06DAB4F84C10002031B12DB101201D
:1019B00003E0B4F84E0000B1022004EB4000002226
:1019C000B0F94A00114603F0EAFADDE90301CDE976
:1019D000010125B10122114601A802F08FFB02206E
:1019E000FFF704FAB4F9442001A9484602F0A6FA28
:1019F000F00706D0002003F09FF9022105A802F0AD
:101A0000A3FA002002F066F807B0BDE8F08370B5D5
:101A1000B0F9046005463046FFF7A1FB04462946AD
:101A2000304600F00EFF00283FD028680B282BD04E
:101A30000C2806D00F2833D131462046BDE870402F
:101A400066E7A868C8B1007A0028E08C4FEAC05069
:101A50000FD0002829DB4FF48071304600F0BDFE26
:101A6000A08B800721D53046BDE87040012103F0EE
:101A7000C7BE002819DA022200E0032221463046C0
:101A8000BDE8704000F0ACB804F14800FFF7C0FBBF
:101A900004F14A00FFF7BCFB04F14C00FFF7B8FB70
:101AA0002846BDE8704001F0B9BD70BD2DE9FF4783
:101AB000DDE90C9804460D4616461F46DDF83CA0AD
:101AC000FFF79AFC3023AFF2B9021FFA88F1CDE993
:101AD0000091CDE902233B4632462946204601F0DB
:101AE000A8FA04000DD02046FFF739FB0546102266
:101AF000514600F0A0FE2022454905F1280006F0DD
:101B000043FDFFF771FC204604B0BDE8F08770B5D7
:101B100004000D4610D0FFF76FFC2046FFF71FFBB7
:101B20002946483002F0AAF810B1204601F07FFAA9
:101B3000BDE87040FFF758BC70BD70B504000D469D
:101B40000CD0FFF759FC2046FFF709FB056420463F
:101B500001F06DFABDE87040FFF746BC70BD70B58E
:101B600004000D46164610D0022D0ED8FFF744FC97
:101B70002046FFF7F4FA00EB85008662204601F06C
:101B800056FABDE87040FFF72FBC70BD70B5040079
:101B90000D46164610D0022D0ED8FFF72DFC20461C
:101BA000FFF7DDFA00EB85004663204601F03FFABF
:101BB000BDE87040FFF718BC70BD00F0ECBD4FF4FD
:101BC00080720029114601D000F007BE00F01CBE53
:101BD00000294FF0100101D000F0FFBD00F014BE4D
:101BE00070B50C46064615464FF4807100F00CFEA9
:101BF000A08B800703D52946304603F001FE022D55
:101C000005D1B4F92400BDE8704002F08CBA70BD73
:101C1000700300207FB50446084615461E46B4F9F9
:101C20000830628A00218DE80F00B4F90C00B4F985
:101C300010308119B4F90A00B4F90E202844FFF7D6
:101C400035FF05466168FFF762FF284604B070BDA6
:101C50003F48006870473E49024608680A6070477E
:101C60003EB500226C46134615462CC42A2202912A
:101C70000092694601F042F83EBD0EB50022694669
:101C80001346944681E80C102A210091694601F020
:101C900035F802980EBD2DE9F8430D461646194653
:101CA000DDE90823044600962668B047064603F09F
:101CB000BFFC8046618A304600F08FFD304603F05D
:101CC000DCFE404607E00023009354F8187F1A46D4
:101CD00041462046B84703F0D0FE6D1E002DF2DCD1
:101CE000304603F04DFE1E21404603F091FD304684
:101CF000BDE8F88370B505460C46FFF7BEFF08B196
:101D0000012112C02846BDE8704001F024B81CB57E
:101D10000022694613460CC16946FFF7A1FF04E0A3
:101D200002F070F908B909F0CBFC00980028F7D050
:101D300001981CBD7CB514461D46DDE90623CDE99E
:101D400000232B462246FFF7A6FFBDE87C40DEE7D6
:101D50009003002070B504460D46FFF700FAB0F876
:101D60005C100A0725B1002A0DDB41F0080103E0F1
:101D7000002A08DA21F00801A0F85C102046BDE82E
:101D8000704001F054B970BD10B50146CA8C0020F6
:101D9000920607D5B1F94000002803D1886A02F005
:101DA00078F9801C10BD2DE9F05F4FF00008054662
:101DB0000C46C146B0F9426003F09CFC83462846BD
:101DC00003F09FFC8246E88C800601D5B5F944906B
:101DD0002846FFF7D9FF0746B5F94E0010B103F0CA
:101DE000AAFC80462780A4F80280ABEB060006EB35
:101DF0000901A680401ECA19208102EB0801E1807A
:101E0000AAEB0601491E6181A6812082F019E681B4
:101E1000401E6082B5F9180022E0FFF7A0F9B0F982
:101E20000010B5F90020B0F90430891A9A1AB0F9F7
:101E30000230B5F90270DB1BB3420FD1838B1B0656
:101E400006D5B4F910208A4208DB491E218205E03C
:101E5000B4F90C10914201DC521CA281B0F91A00B5
:101E60000028DAD1BDE8F09F2DE9F04F8BB0044691
:101E700001F083F906464FF0000B03F049FC0546DC
:101E8000304603F058FC0646B4F9428005A92046C6
:101E9000FFF789FFB4F85C00C0F3C007B4F9500045
:101EA00010B1FFF75CF98346BDF81800ADF80C00DF
:101EB000BDF81C00ADF81000BDF82200ADF80E0012
:101EC000401CADF82200BDF82000BDF82610401CD3
:101ED000ADF81210ADF82000BDF82400401EADF89A
:101EE0002400A06AFEF758FFB4F95A3008A901AAE5
:101EF00058460A9101F0FEFDBDF9140000EB080AF6
:101F0000002001F000FA002844D0AAF1010904EBF6
:101F10008707F86A02F004FF786B02F00DFF01AB4F
:101F200003A958460A9A03F0F7F9FF4802F004FFA4
:101F30000021A8F101036A1E084602F06FF8BDF9FE
:101F400018200021521E731E084602F067F8BDF9E2
:101F50001C00731E401C6A1E002102F05FF8BDF9D0
:101F60001E10731E491C6A1E002002F057F8B4F9B7
:101F700044006A1E00EB09035146002002F04EF8AF
:101F8000B4F94200022801DB03F0B2F901F094F940
:101F90000028BED10BB0BDE8F08F70B504000D462F
:101FA00009D0FFF729FA29462046FFF7D3FEBDE8FE
:101FB0007040FFF719BA70BD2DE9F041B0F9046027
:101FC000054688B03046FFF7CAF80446D5F80880C1
:101FD000476E05E0796828468847002828D13F6881
:101FE000002FF7D12868172845D032DC0D2875D08E
:101FF00021DC0B2871D00C283CD1AD68002D17D006
:10200000287A002814D0B4F85C00000702D43046C7
:1020100003F066FC304603F0B9FAB4F85C00C00681
:1020200006D5C2482946B0F90020304603F010FC1E
:1020300008B0BDE8F0810F2819D014287AD103A97F
:102040002046FFF7B0FE082204A9404606F015FA24
:10205000EEE71F2821D021284DD026280ED02A288F
:1020600068D1A86808B12066E2E7206E2DE020461E
:10207000FFF7FAFE5EE0B4F94C0026E0A8680228FB
:10208000D6D1ADF80660A868029027200090B5F977
:102090000600694600F032FECAE7A868012816D19A
:1020A000B4F95E0003F078FB20B1B4F95E0003F0F0
:1020B00017FC05E0B4F94C0003F062FCA4F85E00E4
:1020C00001213046FFF769FF0020A860B0E700213A
:1020D0003046FFF762FFABE700E027E0B4F85C00B2
:1020E000000727D4A8688068F8B1007AE8B13046C4
:1020F00003F0F6FB1EE0AF68BFB1B7F9020031464E
:1021000003F09BF920B101213046FFF723FE11E0D7
:1021100000213046FFF71EFEB7F90000314603F0FC
:102120007BF910B13888A4F85E0003E004F1500098
:10213000FFF76EF82946304600F083FB002887D071
:10214000284601F06BFA73E72DE9FE430446B0F927
:102150000400074603F08DFA8046FFF700F80546B5
:10216000866C2068172855D008DC0E283CD00F2834
:102170000CD014284ED015284CD042E01F2819D07E
:1021800020282AD022283CD1E86B24E0E86B6FF0AD
:102190007041884203D002F0C3FDFFF7D7F8002E4C
:1021A00006D00ECC68460EC0ADF804706846B04745
:1021B000BDE8FE83A0680028FAD0B5F95E0020B122
:1021C000B84202D003F08CFB04E0384603F0D8FBA1
:1021D000A5F85E000020A060EAE72146404603B073
:1021E000BDE8F04300F02DBBA0684168002908DD80
:1021F0000068092805D1384603F0C2FBA5F85E0047
:10220000D6E73EB1A4F804802046B44603B0BDE84A
:10221000F04360472046BDE8FE4301F0FFB910B52A
:102220000446B0F84C0086B018B9B4F84E00002847
:1022300029D001A92046FFF7B6FDB4F94C00A8B19A
:10224000BDF90A20BDF9081003F0B2FABDF90E007D
:10225000BDF90A10421ABDF90C00BDF90810521C54
:10226000411A491CB4F94C0003F0D0FBB4F94E00FC
:10227000002808D0BDF90A10BDF906208A1ABDF958
:10228000081003F095FA06B010BD70B504000D46B5
:1022900010D0FFF7B1F82046FEF761FF2946503015
:1022A00001F0ECFC10B1204600F0C1FEBDE870402A
:1022B000FFF79AB870BD2DE9F04F89B005460E467C
:1022C00012A890E8030E17469C4641F48054482318
:1022D000174AA1B2DDF85C808DE80F0063463A46EC
:1022E0003146284600F0A5FE06004BD0FFF784F8E3
:1022F0003046FEF734FF05463022514600F09BFA87
:102300000A492022091D05F1280006F03DF90020A8
:1023100048356882C5F80080A5F81490E882E88006
:10232000E861483D04A905E0AAAAAA009403002098
:10233000B91F00082846FFF736FD41F28271CDE94A
:1023400000610023284ACDE90223BDF91A00BDF936
:102350001610BDF91820431ABDF914005B1C121A9F
:10236000521C00F066FEA5F84C0042F20400044244
:1023700002D1304603F0A8FB59463046FFF785FFEF
:10238000FFF732F8304609B005E670B505000C4697
:1023900011D0FFF731F82846FEF7E1FEB0F95A10E8
:1023A000A14204D0A0F85A40284600F040FEBDE803
:1023B0007040FFF719B870BD70B504000D4611D01C
:1023C000FFF71AF82046FEF7CAFE30F85C1F15B179
:1023D00041F0100101E021F010010180BDE87040E2
:1023E000FFF702B870BD000049210008F0B587B0C2
:1023F0000F4615461E4604460C9BB0F9081042686D
:10240000408ACDE904230023CDE90073CDE9020120
:10241000B4F90C00B4F910308119B4F90A00B4F918
:102420000E202844FFF747FF07B0F0BD2DE9F0412B
:1024300006460F46FEF7E0FF8EB13046FEF78FFEF0
:102440000446FFF7A1FC05462046A762FFF7E7FE1A
:102450002946204602F039FD304600F0E8FDBDE88F
:10246000F041FEF7C1BF008870472DE9F0414FF001
:10247000000804460F4615464646FEF7BDFF45B127
:1024800029B2384601F07AFC5FEA000801D1012642
:1024900015E02788B4F902007900891C02F030FAAF
:1024A000050003D14046FEF7A6FEF0E72846FEF7FA
:1024B00056FE20F8178065802088401C2080FEF79B
:1024C00093FF3046BDE8F08170B50546B0F90200D3
:1024D000002811D0FEF743FE0646002404E006EB78
:1024E0004400FEF795FE641C2888A042F7DCA81C77
:1024F000FEF78EFE0020288070BD70B515460C4694
:1025000002880121A2420BD9B0F9020040B1FEF7C6
:1025100026FE00EB44042046FEF77AFE25800021CB
:10252000084670BD2DE9F0410D460188002417468C
:102530001E46A94220D9B0F90200E8B1FEF70FFE0D
:1025400000EB4505B5F9004024B12046FEF749FEF1
:10255000B04208D030B2FEF7C4F9040003D02846D8
:10256000FEF756FE2C803FB134B12046FEF7F7FD52
:102570003246394605F081FF2046A3E710B50246F2
:102580000C4611880020A14208D9B2F90210002996
:1025900004D00846FEF7E3FD30F9140010BD10B575
:1025A0000024FFF7EBFF10B1FEF7D9FD04462046EB
:1025B00010BD70B504004FF0000507D0FEF71CFFFA
:1025C0002046FEF7CCFDC56BFEF70EFF284670BD1A
:1025D000F0B50F4615461E460446B0F90820418A5C
:1025E000436885B00220CDE9007002A80EC0B4F99E
:1025F0000C00B4F910308119B4F90A00B4F90E20B6
:10260000284402F060FD05B0F0BD70B504000D4631
:102610000CD0FEF7F1FE2046FEF7A1FDC562204674
:1026200000F005FDBDE87040FEF7DEBE70BD70B580
:1026300004000D4610D0FEF7DFFE2046FEF78FFDAA
:102640002946283001F01AFB10B1204600F0EFFCBB
:10265000BDE87040FEF7C8BE70BD00007CB50D46F9
:10266000016A4C69D0E90212CDE90012694600F016
:102670002BFAB5F90000BDF900102044884214DCA3
:10268000B5F90400BDF90410001B88420DDBB5F953
:102690000200BDF902102044884206DCB5F90600AC
:1026A000BDF90610001B884201DA01207CBD002024
:1026B0007CBD30B5858800881488281AD588938811
:1026C000451B0D805288801A88804C80CB8030BD9D
:1026D0001CB5C08C0C4600070FD5684601F0B7F852
:1026E000BDF802002080BDF80600A080BDF8000003
:1026F0006080BDF80400E0801CBD2046BDE81C40A1
:1027000001F0A5B810B502F0B4FF02F085FF6FF03C
:102710007041884203D1BDE81040FFF799BA10BD5F
:1027200070B505460C4600F040FC286A2146426917
:102730002046BDE87040FEF7C7B8C18C090704D534
:10274000B0F90610B0F9020003E0B0F90410B0F9D6
:102750000000081A401C7047C18C090704D5B0F965
:102760000410B0F9000003E0B0F90610B0F902005F
:10277000081A401C704710B50446FEF7F0FCC08CE8
:102780000007204603D5BDE8104002F0D4BFBDE8E5
:10279000104002F0BDBF70B505460C46FEF72CFE9A
:1027A0002846FEF7DCFCC18CA14203D0C484284635
:1027B00000F03DFCBDE87040FEF716BE70B50400A9
:1027C0004FF0000507D0FEF717FE2046FEF7C7FCC6
:1027D000C58CFEF709FE284670BD70B505000C4695
:1027E00011D0FEF709FE2846FEF7B9FCC18C34EA89
:1027F000010204D02143C184284600F018FCBDE842
:102800007040FEF7F1BD70BD70B504000D4611D0EB
:10281000FEF7F2FD2046FEF7A2FCC28C22EA05017B
:102820008A4203D0C184204600F001FCBDE870401C
:10283000FEF7DABD70BD824B1B680362C2848184DF
:10284000704738B505460C46FEF789FC2168162905
:102850003CD00ADC0D2930D0112924D0142953D0C2
:10286000152957D1B0F9240048E01F2931D020297B
:1028700046D0B1F5407F4DD1016A4A69A168016235
:102880004869141AFEF7B8FD2846FEF768FC614255
:1028900023460A46009402F0DFFDFEF7A5FD284618
:1028A00000F0C5FB33E0C08CC00633D5A068007AC9
:1028B00078B3284603F014F82CE0A068806840B391
:1028C000007A30B3284602F061FE20E0A1688184DE
:1028D0001DE0A168C08C012906D140F00101284605
:1028E000FFF759FF082105E020F001012846FFF716
:1028F00052FF0921284602F083FF0020A06006E075
:10290000C08CC0F30010F9E7A168FFF709FF0020B1
:1029100038BDFFE70120FBE770B50E4605461446BB
:10292000FE2100F0C9FF314603F064F8FF2128467C
:1029300000F0C2FF2146BDE8704003F05BB81CB553
:102940000B46C18C1446090704D51A466946FFF7A1
:10295000B0FE6B462146184601F0F6FA1CBD1FB5C5
:102960000446084611461A46E38C1B0715D5ADF8F8
:102970000800ADF80C00ADF80A10ADF80E2002AA60
:1029800069462046FFF795FEBDF90420BDF9001009
:10299000BDF90200FEF71AF81FBD04B0BDE81040F3
:1029A000FEF73EB81CB503460846D98C090705D585
:1029B000024669461846FFF77CFE6846BDE81C40A3
:1029C00001F058BB7CB505460C0003D1684600F009
:1029D0003EFF6C46E88C000705D52246694628462E
:1029E000FFF767FE6C4621462846FFF737FE0028B2
:1029F00003D0286AC168204688477CBD0021E1E7F2
:102A00007CB50546C08C0C46000705D522466946B4
:102A10002846FFF74EFE6C4621462846FFF71EFE6D
:102A2000002803D0286A8168204688477CBD044975
:102A3000024608680A607047014800687047000055
:102A4000B8030020B0F90010B0F90420914205DC71
:102A5000B0F90210B0F90600814201DD0020704794
:102A6000012070477CB50D46FEF779FB0446808B4C
:102A700081071CD540F601010840012817D02846DF
:102A8000FFF7E0FF002812D022462946684601F0F1
:102A9000A6F86846FFF7D6FF002808D0A08B81066D
:102AA00006D504F108016A46084601F0FAFA7CBD31
:102AB000DDE90012C4E9021240F02000FB49A083C6
:102AC000C888401CC8807CBD0B46B0F90220B0F914
:102AD0000010184601F012BB7CB5F54C0546A16B01
:102AE00021B92846BDE87C4002F04EB9082268466C
:102AF00005F0C3FCED48B0F9120008B9B4F93C0088
:102B0000FEF72DFB6946FFF7DFFF2946684601F017
:102B100049F8684602F038F97CBD2DE9F0410746D6
:102B20000E463046FEF71BFB0446808B800711D50E
:102B30002146384601F036F8B4F916500DB12E464C
:102B4000EFE7DA480A30B0F90000B04202D10120C4
:102B5000BDE8F0810020FBE71CB5D44C607818B1CB
:102B6000BDE81C40D348B7E7D148B0F93C00FEF7B8
:102B7000F6FA03C8CDE90001B4F9121011B16846A4
:102B8000FFF7CBFF6846FFF7A7FF1CBD2DE9F04715
:102B900006460C0013D03046FEF7E1FA00214183CF
:102BA0000546C4822046FEF7DAFA0746A88BB7F935
:102BB000189000F00808B9F1000F02D13E83BDE87B
:102BC000F0874846FEF7CBFA0446B8F1000F05D16E
:102BD000A08B000702D5A5F81A90EFE7B4F91A7098
:102BE0000FB96683EBE73846FEF7B9FAB8F1000F84
:102BF00005D1818B090702D566836F83DFE7044621
:102C0000ECE770B50546FEF7AAFA0446B0F91600DF
:102C100000280AD0FEF7A3FA0646B0F91800A84229
:102C20000ED1FEF79CFA408B308370BDFEF797FA09
:102C30000146B0F91A00A84202D1608B488370BDEA
:102C40000028F3D170BD70B50546FEF7D5FB974857
:102C5000B0F9084008E029462046FFF703FF204668
:102C6000FEF77DFAB0F91440002CF4D1BDE87040B5
:102C7000FEF7BABB70B50546FEF771FA0446C08A86
:102C8000002807D02846FFF7BCFF2046FFF7DBFFF0
:102C90000020E08270BD70B50446FEF7ADFB844DA8
:102CA000B5F93C6014B98148B0F90840AC872046BA
:102CB000FEF755FA044602F00DF8B4F90000286456
:102CC000B4F902006864FEF78FFB304670BD70B542
:102CD00005467648B0F908000DE0FEF740FAB0F975
:102CE00014100446A94205D12846FEF738FA808A16
:102CF000A08270BD08460028EFD170BD70B50400F9
:102D00000D460ED0FEF778FB2046FEF728FA016943
:102D100019B1AC80016928468847BDE87040FEF7CC
:102D200063BB70BD0EB50091ADF804006946FFF7B6
:102D3000E5FF0EBD10B504465C48B0F9080007E099
:102D4000A04201D1012010BDFEF709FAB0F914002C
:102D50000028F5D110BD70B504004DD0FEF74CFB36
:102D60002046FFF7E7FFF0B32046FEF7F8F90546E7
:102D70004E4E0020B082B6F91010A14200D1308230
:102D8000B6F90E10A14200D1F081B16905E0B1F9A8
:102D90000420A24200D1888009680029F7D10721C8
:102DA000204602F02DFDB5F9180000F026F80B21A1
:102DB0002046FFF7B7FF2046FFF75CFF2046FFF7EE
:102DC00086FFA88BC10702D0716A491E7162800616
:102DD00002D5F088401EF080B088401EB0802046AA
:102DE000FEF709FA00E003E0B6F90800FFF753FF29
:102DF000BDE87040FEF7F8BA70BD70B5044608E053
:102E00002046FEF7ACF9B0F91A502046FFF7A3FFB1
:102E10002C46002CF4D170BD15E72DE9FC410E467F
:102E200090463EE0FEF79BF9848B0546A00736D519
:102E3000B8F1000F05D042462946684600F0CFFEA3
:102E400003E0D5E90001CDE900016946304601F013
:102E5000A7F920B3E00712D1B5F90200B6F90210C4
:102E6000884205DDBDF90200401E03E0F08016E057
:102E7000BDF90600B6F906108842F7DB0FE0B5F998
:102E800018400AE02046FEF76AF907466A463146CE
:102E90002046FFF7C2FFB7F91A40002CF2D1B5F96E
:102EA0001A000028BED1BDE8FC810000BC03002050
:102EB000F4B90020F8BB00202DE9FC478846914674
:102EC000002634E0FEF74BF9848B0546A0072CD58D
:102ED000B9F1000F05D04A462946684600F07FFE4A
:102EE00003E0D5E90001CDE900016946404601F063
:102EF00057F9D0B1E00706D1BDF80400401CA8F88E
:102F00000000012611E0B5F918400CE02046FEF75C
:102F100026F907466A4641462046FFF7CDFF00B135
:102F20000126B7F91A40002CF0D1B5F91A00002893
:102F3000C8D13046BDE8FC872DE9FC410E469046DD
:102F400030E0FEF70CF9848B0546A00728D5B8F1D0
:102F5000000F05D042462946684600F040FE03E0D7
:102F6000D5E90001CDE900016946304601F018F9C4
:102F7000B0B1E00704D1BDF80000401EB0800FE002
:102F8000B5F918400AE02046FEF7E9F807466A4618
:102F900031462046FFF7D0FFB7F91A40002CF2D196
:102FA000B5F91A000028CCD17DE700224A800A80BA
:102FB00082880388D21A8A80C2884088101AC88002
:102FC00070472DE9FF4106000F462ED0FEF714FA98
:102FD0003046FEF7C4F8858B0446A80723D5D4E90C
:102FE0000001CDE9020167B108223946684605F0C3
:102FF00044FA69462046FFF767FD694602A800F0DB
:10300000D1FD314602A8FFF788FD60B140F601000E
:103010000540012D03D102A8FFF715FE03E002A928
:103020003046FFF71FFDFEF7DFF9BDE8FF81002105
:10303000C7E72DE9F05FDDE90A6507468846914656
:103040009B46DDF834A0FEF7D7F9FB4CA089054379
:103050002EB9A08818B104F10A00B0F90060701C04
:1030600001D1002619E0C6B13046FEF778F8B0F974
:103070000010B0F902200F449044B9F1000F04D1C0
:10308000B0F90430591A01F10109BBF1000F04D164
:10309000B0F90600801A00F1010B0AF1200000B21D
:1030A000FDF71FFC5FEA000A4FD0E348E249808841
:1030B000401C88805046FEF752F8078007EB090154
:1030C000A0F80280491E818008EB0B01491EC180D7
:1030D0000C9901610446818B43F68F7028400143AF
:1030E000D548A183B0F9080050B1FEF738F807467B
:1030F0005046FEF734F8B98A8182A7F814A002E09E
:10310000CD49A1F808A031465046FFF73FFDA8067B
:1031100002D55046FFF7BFFDE80703D0C649486A0D
:10312000401C4862680602D5504602F008FAA8071B
:1031300007D5A08B002140F00200A0835046FFF786
:1031400040FF01215046FFF7EDFDFEF74DF95046D7
:10315000BDE8F09F2DE9FF410D4616461F460AA91E
:103160000EC9044600208DE80F003B463246294632
:103170002046FFF75EFF04B0EAE4B048B0F93C0037
:1031800070472DE9FC41AE4ED6E90201CDE90001C0
:10319000306920B93088ADF80000708810E0B0893F
:1031A000401C00B2ADF800007189ADF80210B6F90C
:1031B0000410884206DD3088ADF80000F089401C1C
:1031C000ADF80200BDF90200B6F9061088426BDCCA
:1031D0009A4FB7F93C00FDF7C2FF0546BDF9000064
:1031E000B6F9001088421BD1F088ADF80600B0880F
:1031F000ADF80400B7F93C000AE0FDF7B0FF044663
:10320000B0F91A0000226946FFF707FEB4F916006C
:103210000028F2D1B5F9180000226946FFF7FDFD3C
:10322000BDF80000ADF80400B7F93C000CE0FDF774
:1032300096FF0446B0F91A0000226946FFF73CFEEB
:103240000028EDD1B4F916000028F0D1B5F9180026
:1032500000226946FFF730FE0028E1D1B6F90400EC
:10326000BDF90010ADF80400884204DADDE9000180
:10327000C6E902019FE7B7F93C000AE0FDF76FFFDE
:103280000446B0F91A0000226946FFF755FEB4F96A
:1032900016000028F2D1B5F9180000226946FFF7A0
:1032A0004BFE3069C82801DD0020FCE5DDE90001A6
:1032B000C6E902010120F6E570B55F4C607808B9F7
:1032C000002070BD5E4D6869012802DD401E686106
:1032D000F6E7207820B1002020705A480068804727
:1032E0002869401C2861FFF74CFF08B96869EDE7C1
:1032F000FFF732FC5448016819B15148083088473B
:103300002070012070BD2DE9FF414B4E8046707842
:1033100010B9FFF721FC05E0494D6869401C686160
:10332000012801DD012026E7444FB7F93C00FDF7F5
:1033300016FF04464FF0FF302861B07830B1082204
:1033400004F1080102A805F098F806E0A08B8007B8
:103350002CD5D4E90001CDE90201B8F1000F03D06A
:10336000414602A800F01EFCB86B90B1014608224D
:10337000684605F082F8B6F9120010B1FDF7EFFECD
:10338000044669462046FFF79FFB694602A800F005
:1033900009FCB6F9121019B102A8FFF7BEFB28B15B
:1033A000B7F93C1002A8FFF7B8FB20B96869401EC6
:1033B00068610020DFE6DDE9020103C5FFF77CFF5D
:1033C000D9E610B500F014FF1C490020886310BD39
:1033D000FEB505460A69888B002A2BD0820729D5BD
:1033E000154E4FF00F07B27801F10804521CB2706D
:1033F000C0040AD5ADF8045000970294FFF7E1FF2E
:1034000069462846FFF77AFC11E02046FFF77BFF6C
:103410000BE0ADF8045000970294FFF7D2FF694625
:103420002846FFF76BFCFFF747FF0028F1D1B07883
:10343000401EB070FEBD0000BC030020F4B90020A7
:10344000F0BB002058030020540300202DE9F04772
:10345000D74C81460D46B4F93C00FDF780FE08309C
:103460002946804600F09CFE00281BD0D4E9106756
:103470004246294605F1080000F0B1FBDFF834832D
:103480002946A8F81290B5F900002064B5F90200A9
:1034900060644846FFF79CFF0021A8F81210012045
:1034A000C4E91067BDE8F0872DE9F0470446808B3A
:1034B0008007F7D5B4F9186004F108091AE030461E
:1034C000FDF74DFE0546808BC043800710D149466D
:1034D000284600F065FE58B1D4E902782946304606
:1034E000FFF7B4FF10B12846FFF7DEFFC4E902780A
:1034F000B5F91A60002EE2D1D4E770B501464C68E8
:1035000040F60102A18BB0F900001140012902D060
:103510002146FFF75DFFA748406A002823D02046D8
:10352000FFF7C2FFB4F91660B4F91A5019E0284643
:10353000FDF715FE0446808BC043800703D121466A
:103540002846FFF783FF2046FFF7AEFFB4F91A5075
:10355000002DECD13046FDF702FEB0F91A50B0F95B
:103560001660002EF4D170BD2DE9F041904F8046D9
:10357000B7F93C00FDF7F3FDD0E90256D7E9011297
:10358000C0E9021204464046FFF7B7FFC4E90256FD
:10359000BDE8F081F0B5874E99B0306A00B1804740
:1035A0008548006808B1804710B900F0CFFD10B120
:1035B000012019B0F0BD707820B3F08810B3FDF78A
:1035C0001BFFB6F90850B6F91400012400B10546F6
:1035D00001A800F001FE0BE02846FDF7C0FD0746FC
:1035E0000146284600F0A3F800B1641EB7F9145054
:1035F0000DB1002CF0D1B58201A800F0F1FDFDF76E
:10360000F3FED5E70020D4E710B5002400E0012444
:10361000FFF7C0FF0028FAD1204610BD70B5B0F901
:103620000450044686682846FDF799FD216817294D
:1036300011D007DC0E2910D0142917D13146FFF71D
:10364000B4FC13E022290ED028290FD12846BDE86A
:1036500070400021B5E4A56070BD21462846BDE854
:10366000704002F0E2B86FF0704000E00020A0600F
:1036700070BD10B5044600680E2810D00F280AD17E
:103680004C486FF070411C300068884203D0FDF751
:103690006DFBFDF75BFE2046BDE81040BEE7A0686D
:1036A0004168012904D10068BDE8104000F03BBD2D
:1036B00010BD404901204870704710B53D490020B9
:1036C0004870FDF799FE01F005FBBDE81040FDF7DD
:1036D0008BBE3EB5374CE078002827D12081344995
:1036E000A0828863E080A080344A0221CDE90012E4
:1036F00040F6FF72029013460146FFF72BFD04F1DE
:103700000A0528806FF0704104F11C021160FFF778
:103710008EFC2B4801F066FF2A4801F063FFB5F9E3
:103720000000FFF7B8FA01206070E0703EBD70B590
:103730000646888B002586B00C46800635D5206964
:1037400000B3314604F10800FFF7E7F9D0B1ADF856
:10375000106030460594FFF79EFAA08B400712D503
:10376000D4E90201CDE90201A08B40F30003E08A15
:103770005B1C00B900230093002304AA124902A88D
:1037800001F02AFB03E004A8FFF7B7FE0125A08B98
:1037900020F02000A08380B2810402D540F0040014
:1037A000A0830448C188491EC180284606B070BD68
:1037B000F4B90020BC030020480300207336000841
:1037C0001004002018040020693500088268016890
:1037D000891A00D500214268002A01DA00224260DD
:1037E0008A4200DD4160704770B50446D0E901505F
:1037F0002E18761E8E4201DB284603E0081A184474
:10380000401C6060884201DD881A60602046FFF736
:10381000DDFF6068401B70BD10B544680346416021
:10382000FFF7D4FF5868001B10BD000070B50546B7
:103830000C46FDF7E1FD35B12CB12846FDF78FFCB4
:103840002146FFF7B2FBBDE87040FDF7CDBD10B5D6
:103850000446FDF7D1FD0748B0F9000010B906484D
:10386000B0F93C002146FFF7E1FFBDE81040FDF74D
:10387000BBBD0000CE030020F4B9002070B50D469A
:103880000026FDF76CFCB0F9184011E0204600F06E
:1038900024F8A84201D1204670BD29462046FFF7F2
:1038A000EDFF060006D12046FDF759FCB0F91A409D
:1038B000002CEBD1304670BD70B504000E464FF0C1
:1038C000000508D0FDF798FD31462046FFF7D6FFEA
:1038D0000546FDF789FD284670BD0EB515210091FE
:1038E0006946FFF70BFA02980EBD00000EB5029173
:1038F000142100916946FFF701FA0EBD0146024806
:10390000B0F93C00F2E70000F4B90020F0B587B050
:1039100007000C464CD0002C4AD0FF213846FFF758
:10392000CBFF0546FE213846FFF7C6FF064605A930
:10393000384601F0C4FE03A93846FFF7D7FFC6B1E9
:1039400001A9304601F0BBFEBDF916004242BDF9A7
:103950001400414201A800F0D1FB304601F07AFE8C
:10396000010606D5800704D5BDF80400401EADF859
:103970001000C5B101A9284601F0A1FEBDF916004D
:103980004242BDF91400414201A800F0B7FB2846AD
:1039900001F060FEC10506D5800704D5BDF806001C
:1039A000401EADF81200082203A9204604F065FD70
:1039B00007B0F0BD70B505000E464FF0000410D002
:1039C000FDF71AFD2846FDF7CAFB818B890606D54F
:1039D00000F1080101240822304604F04EFDFDF7F5
:1039E00003FD204670BD000070B505004FF00004D7
:1039F00008D0FDF701FD2846FDF7B1FBB0F9004006
:103A0000FDF7F2FC204670BD70B505004FF00004D4
:103A100008D0FDF7F1FC2846FDF7A1FBB0F9024004
:103A2000FDF7E2FC204670BD0348B0F93C00DBE73F
:103A30000148B0F93C00E7E7F4B90020FF21FFF7A7
:103A40003BBFFE21FFF738BF0249024608880A80C3
:103A500070470000C80300202DE9F0410D460646DE
:103A600011461F46FFF728FF04462DB15CB93946C1
:103A7000304601F0CEFA09E0204601F074FE2CB188
:103A80002046FFF768F90120BDE8F0810020FBE740
:103A90000823FE22E0E70023FF22DDE770B504469D
:103AA0000D46FDF7A9FC29462046FFF7F4FF044622
:103AB000FDF79AFC204670BD70B504460D46FDF733
:103AC0009BFC29462046FFF7E3FF0446FDF78CFCEC
:103AD000204670BD70B50546FDF78EFC0448846B2A
:103AE0008563FFF739F8FDF77FFC204670BD0000C5
:103AF000F4B900202DE9F0410C461746984680B3F2
:103B000002F000FA064608F0030001280DD0022852
:103B100010D1B4F90410B4F90000091A891B491C2A
:103B200001EBD17100EB610506E0B4F90400851BDF
:103B30006D1C01E0B4F9005002F094FA014608F05F
:103B40000C0004280ED00C2811D1B4F90620B4F9C9
:103B50000200121A521A521C02EBD27200EB6200DF
:103B600007E010E0B4F90600401A401C01E0B4F987
:103B700002003D807880AA19521E0844BA80401E77
:103B8000F880BDE8F08121463846BDE8F0410822C2
:103B900004F073BC02488169087DC97D48437047C1
:103BA000F4B90020B0F90030B1F90020934200DAF6
:103BB0000280B0F90230B1F90220934200DA42806B
:103BC000B0F90430B1F90420934200DD8280B0F9ED
:103BD0000620B1F906108A4200DDC180704770B539
:103BE000B1F90030B2F90040A34200DC2346038063
:103BF000B1F90250B2F90240A54200DC25464580E9
:103C0000B1F90440B2F90460B44200DD3446848066
:103C1000B1F90610B2F90620914200DD1146C180CB
:103C20009C4201DBA94201DA002070BD012070BD79
:103C300010B502E000F8011B521E0AB18307F9D14A
:103C4000930818D001EB014402F0030204EB0424B2
:103C500006E004604460846040F80C4F001D1B1FA8
:103C6000042BF6DA01E010C05B1E002BFBD102E052
:103C700000F8011B521E002AFAD110BD2DE9F041B7
:103C800005460E460027B0F9000002F051F898B141
:103C9000304602F05DF8401C00B2FDF752FA040015
:103CA0000AD02046FDF75BFA314604F0A3FB284614
:103CB000FDF7AEFA2C8001273846BDE8F081000000
:103CC000011E10B54FF001000B4600DC4B42294AA3
:103CD00000E0401C52F820409C4201D80928F8DB43
:103CE000002900DA401C10BD10B5002802DA2D2290
:103CF000404200E02B220B685C1C0C601A700968C3
:103D000000220A7010BDF0B5002807DA1C682D25C6
:103D1000661C1E6025704042012400E00024091B3F
:103D2000C9B20AB1491EC9B2124E56F821408442A6
:103D300000D8601EDFF840C016E00C46491EC9B22C
:103D4000944205D11C689CF80070651C1D602770AA
:103D500056F8215090FBF5F4E4B204FB15001D6801
:103D600030346F1C1F602C700029E6D119680020C8
:103D70000870F0BD884601084103002070B5054673
:103D80000E46FDF739FB0EB9002070BD3046FDF739
:103D9000D8F904000BD02046FDF7E1F932461DB1F9
:103DA000294604F06AFB02E00021FFF741FFFDF71E
:103DB0001BFB204670BD00002DE9FF4F85B000249D
:103DC0000E4691469A462546DDF814B0FCF768FF8A
:103DD00080462EB10822314603A804F04EFB02E0D3
:103DE00003A800F051F919F00C0F02D1BDF90E40F3
:103DF00029E05746012610E03946059802F0B3F94C
:103E00003F1A0146059802F006F905990844059005
:103E100005A801F06FFF10B9761C002FECD109F056
:103E20000C00042813D0082811D00C280BD1BDF9A0
:103E30001210BDF90E000A1A06FB1821491C01EBED
:103E4000D17100EB61045646CDF814B04CE0BDF9D9
:103E5000121006FB1814641CF5E73146059802F0B1
:103E600082F90746361A0146059802F094F919F0CE
:103E700003010ED001290FD0022911D1BDF9101074
:103E8000BDF90C20891A091A01EBD17102EB610509
:103E900006E0BDF90C5003E0BDF910100D1A6D1CC1
:103EA0002849401E4D842844ADF80800ADF8045060
:103EB0008C8404EB0800401EADF80A00ADF8064003
:103EC00001AA3946059802F07DF93946059802F0B5
:103ED000A2F805990844059002F0C4F8044405A826
:103EE00001F008FF002801D1002EB6D109B0BDE8CD
:103EF000F08F2DE9FC4105000E46174698461BD071
:103F00000024FDF779FA66B13046FFF7E3FD0400BF
:103F100007D0224631466846FFF761FE6846FFF744
:103F2000D9FD43463A4631462846FFF745FF20462D
:103F3000FFF7D0FDFDF758FABDE8FC8147F6FF73A7
:103F4000D7E70000F4B900201CB50A4601466846D0
:103F5000FCF7BAFCFDF750FA2248BDF80020016CCE
:103F60000A44ADF80020BDF80220406C0244ADF8D0
:103F70000220BDF804201144ADF80410BDF806106D
:103F80000844ADF806006846FFF7BDF925E0BDF925
:103F900000400AE0BDF90210204600F057FDBDF9CF
:103FA0000610204600F052FDA41CBDF90400A042FA
:103FB000F0DABDF902400AE0BDF90000214600F048
:103FC00045FDBDF90400214600F040FDA41CBDF9EB
:103FD0000600A042F0DAFFF76FF90028D7D1FDF70D
:103FE00003FA1CBDF4B9002010B50B48002400688A
:103FF00010B1804700B10124FFF706FB00B1012496
:10400000204610BD10B5002400E00124FFF7ECFFAE
:104010000028FAD1204610BD440300202DE9FC41C0
:1040200004460D4616461F46FDF7E6F91049086C92
:10403000496C044406440D440F44ADF80040ADF80B
:104040000460ADF80250ADF806706846FFF75BF902
:1040500007E03B4632462946204600F032FDFFF796
:104060002BF90028F5D1FDF7BFF9BDE8FC81000070
:10407000F4B90020B0F90630B0F90420B0F902100C
:10408000B0F90000FFF7CABF002801D0FFF7DFBB7F
:104090007047017DC07D48437047417DC07D4843E6
:1040A000704730B4002821D011B30AB3B1F9003001
:1040B000B2F90040A34200DD23460380B1F902308B
:1040C000B2F90240A34200DD23464380B1F9043037
:1040D000B2F90440A34200DC23468380B1F9061004
:1040E000B2F90620914200DC1146C18030BC704715
:1040F00001B9114630BC082204F0BFB900280BD02A
:1041000003880B44038083881944818041881144CB
:104110004180C1881144C180704700001F490022BE
:1041200048684A6070471D494A68002A00D14860C3
:10413000704700B5FFF7F2FF0028FBD100BD174A1A
:10414000083203C2154901200860704770B5002489
:10415000FDF752F91149086878B1401E01F10804D1
:104160000860D4E90051284603F09AFD60680128F0
:1041700002D12846FFF7D7FF0124FDF735F9204685
:1041800070BD70B504460D4603F08AFD002804D1C9
:1041900029462046BDE87040D1E770BDE803002005
:1041A000B0F90220B1F906309A4213DCB1F90220CD
:1041B000B0F906309A420DDCB0F90020B1F90430B4
:1041C0009A4207DCB1F90010B0F90400814201DC29
:1041D00001207047002070476022044904F0D4B9E0
:1041E00001466022014804F0CFB90000F4B9002074
:1041F00010B50020FCF7BAFD6FF07F40FCF7C1FD61
:104200000120FCF79BFD0020FCF7E2FD0020FCF7FD
:10421000EDFD002001F0A0FE0848FCF7BDFDBDE863
:1042200010400020FCF7C6BD10B5FDF7E5F8FFF71C
:10423000DFFFBDE81040FDF7D7B800007417010894
:1042400030B40C4C2268831A00D55B4262688A1A2B
:1042500000D552421A44022A03DD03C430BC01F0E7
:1042600087BE30BC7047034A13680360506808601B
:1042700070470000F8030020007870470120704765
:104280000120704701700120704710B5FDF7B4F8A8
:1042900004490348C861BDE81040FDF7A5B8000017
:1042A000B0460108F4B900202DE9F04FDFF850B115
:1042B0008BB0BBF922200A92DBF81820BBF924A0AE
:1042C00094694FF0FF36A189884205D3E389834280
:1042D00002D3451A276813E0D4E9017179B10B883C
:1042E00098420CD34D88854209D3C01A496880B2E0
:1042F00001EB8000B0F90050B0F9026000E03546F3
:10430000681C58D0107DA17C00FB01F9217CCDE90F
:104310000801BBF92A80404600F08AFBC0B205FBC9
:1043200009720790364BA17C012002AD0FC5DBF866
:1043300018005146C37D827DCDE90023DDE90832B6
:104340000A9800F0DEFB701C16D048F0020000F066
:104350006FFB06FB09722A4BA17C012002AD0FC541
:10436000DBF818005146C37D827DCDE90023DDE9ED
:1043700008320A9800F0C5FBDBF818005D46417D65
:10438000007D814214D9B8F1020F11D088F00400E9
:1043900000F04EFBA869037D427D857D03FB02A1F1
:1043A00002EB0A03DDE9092002FB050200F089FBAC
:1043B000079800F03DFBBBF82210627C1144ABF87B
:1043C00022100BB0BDE8F08F0D4880698069407CF9
:1043D000704702200880704780698289914202D329
:1043E000C2898A4207D2806838B102888A4204D8DA
:1043F0004088884201D301207047002070470000A8
:10440000F4B900202DE9F0433F4D0446A86987B078
:10441000B5F92A608069214600F06BF8002847D082
:1044200041680088201A01EBC004A778304600F0EC
:10443000FFFA62688146CDE903722B46012005939D
:104440000290A869C37D827DCDE90023037D227897
:10445000B5F92410B5F9220000F053FBA869477D97
:10446000017D8F4219D9C07D474301FB00F8022E20
:1044700013D001F03BFD064601F022FDFCF781FC64
:10448000B5F9220021784218B5F92410CB1941441E
:1044900000F017FB3046FCF774FC484600F0C8FA01
:1044A000AA69B5F922006178927D01FB0200688457
:1044B00007B0BDE8F08370B5134C0546A0692946E6
:1044C000806900F016F8002807D041680088281A93
:1044D00011F83000A169897D484370BD0120088032
:1044E000704710B5806900F004F8002800D0012062
:1044F00010BD06E002888A4202D842888A4202D26F
:1045000080680028F6D17047F4B900202DE9FC5FDF
:1045100005461044DFF8E4830190D8F858001746A8
:104520000E4601EB030942681C4649460198904734
:10453000E81B0090D8F85800494642680098904718
:10454000D8F8580006EB070B05EB040942685946FA
:1045500048469047D8F85800A6EB070A42685146EB
:1045600048469047002C1AD0D8F85800371B4268AC
:104570004646394601989047B06D394642680098E2
:104580009047B06D2C1B4268594620469047B06D4D
:1045900051464268204602B0BDE8F05F1047BDE8D2
:1045A000FC9F2DE9F0478046894640F2C3205043E6
:1045B0004FF47A7190FBF1F602FB02F002EBD2713C
:1045C00000EB6107761C1446002349464046FFF77E
:1045D0009DFF012513E005FB05F004FB0400B84234
:1045E00006DD23462A4649464046FFF78FFF641EF4
:1045F00023462A4649464046FFF788FF6D1CB542D0
:10460000E9DDBDE8F0877CB505460E461446FCF7AB
:10461000F3FEBA48016C406C0D440644281BADF80B
:1046200000002819ADF80400301BADF80200301965
:10463000ADF806006846FEF766FE06E02246314603
:104640002846FFF7AEFFFEF737FE0028F6D1FCF74D
:10465000CBFE7CBD2DE9F84F06460F4640F2C32045
:1046600050434FF47A7190FBF1F000F1010802FB26
:1046700002F002EBD27100EB6100B1180090DFF89C
:104680007CB21446B01ADBF8582013680A46394643
:104690009847012530E005FB05F004FB0400009974
:1046A000884216DD444513DD7219DBF85830914617
:1046B000701B521E391982461B68401C9847DBF854
:1046C0005830A9F101021B68391B0AF10100984713
:1046D000641EDBF8580006EB0409A6EB040A036825
:1046E00079194A4650469847DBF85800791B036809
:1046F0004A46504698476D1C4545CCDDBDE8F88FCD
:1047000070B504460E461546FCF776FE7B48016CF4
:10471000406C0C4406440020FEF7F5FD06E02A46F6
:1047200031462046FFF796FFFEF7C6FD0028F6D17A
:10473000BDE87040FCF758BE2DE9FC5F074602FB60
:1047400002F083465843894600FB03F11E4601EB05
:10475000500814460025DFF8A4A123E005FB05F06E
:104760000BFB00F106FB06F200E0641E04FB04F004
:1047700002FB0010002C01DD4045F6DC3A19381B25
:10478000CDE90002DAF8583009EB05011B689847BB
:104790003DB1DAF85800A9EB05010368DDE9000234
:1047A00098476D1CB542D9DDF9E62DE9FC41044678
:1047B0000D4616461F46FCF71FFE5048016C406C24
:1047C0000C440544A01BADF80000A019ADF804008E
:1047D000E81BADF80200E819ADF806006846FEF7E0
:1047E00092FD07E03B46324629462046FFF7A4FFEC
:1047F000FEF762FD0028F5D1FCF7F6FDBDE8FC816F
:104800002DE9F04F8B4685B002FB02F1049159432C
:10481000064601FB03F000EB510014469A46914610
:10482000002500903BE001D1002410E0049905FB35
:1048300005F041430AFB0AF200E0641E04FB04F0A9
:1048400002FB0010002C02DD009B9842F5DC25B332
:10485000301B0390ABEB0507A6EB0900791C3B4628
:104860000290039AFBF76CFD0BEB0508DDE90202F1
:10487000A8F101014346FBF763FD3019B14402463C
:104880000190791C3B464846FBF75AFDA8F101010F
:1048900043464846019AFBF753FDA1466D1C55451A
:1048A000C1DD05B0BDE8F08F2DE9FC4104460D46A1
:1048B00016461F46FCF7A0FD1048016C406C0C44E6
:1048C0000544A01BADF80000A019ADF80400E81BDA
:1048D000ADF80200E819ADF806006846FEF713FDD2
:1048E00007E03B46324629462046FFF789FFFEF7A0
:1048F000E3FC0028F5D1FCF777FD7FE7F4B9002051
:104900002DE9F04106460C4608B2FCF71AFC0500FA
:104910001AD0CEB13046FCF764FCA04200DB204642
:104920000446FCF769FD2846FCF719FC07463046AB
:10493000FCF715FC01462246384603F09EFDFCF7C5
:1049400053FD3046FCF757FC2846BDE8F0811FB503
:1049500001AB00936B46FFF7D6F901A801F01AFAF4
:104960001FBD7FB50D4601A9009114466946FFF7AA
:10497000BBF96D1EE9B26B462246FFF7C4F901A8E8
:1049800001F008FA7FBD1FB501A90091694601F049
:10499000E9F901A801F0FEF91FBD7FB5051E01A8C8
:1049A0000C46009006DA69462846FFF79DF9641E1A
:1049B0000546E4B22846FFF783F9C1B2202003E0A0
:1049C000009A02F8010B00920A46491CC9B2A242A1
:1049D000F6D36946284601F0C5F901A801F0DAF9D5
:1049E0007FBD0022BDE70022B1E77FB515460C462A
:1049F00001AA194600926B460022FFF784F92A4665
:104A0000214601A801F040FA7FBD000010B5044620
:104A1000012000F09DF9D24921F8104010BD10B5D9
:104A20000446002000F094F9CD4921F8104010BD53
:104A300010B5CB490246087B80EA02035B0703D529
:104A40000B884C880C804B800A7310BD30B4C44A6C
:104A5000B2F906308B4217DCB2F90A308B4213DB15
:104A6000B2F9043083420FDCB2F9083083420BDB29
:104A7000137BDC0713469B6C02D09A6A30BC10474C
:104A800052885B6A30BC184730BC704730B4B44CB5
:104A9000B4F906308B42F7DCB4F90A308B42F3DB11
:104AA000B4F90430834200DD1846B4F9083093426B
:104AB00000DA1A468242E7DBA36C1B6930BC184758
:104AC000E2E730B4A64DB5F90440844200DD20464B
:104AD000B5F90840944200DA22468242D4DBB5F9A7
:104AE00006408C4200DD2146B5F90A409C4200DABE
:104AF00023468B42C8DBAC6CA469A44630BC60473B
:104B0000C2E72DE9FF4F0546964887B0D0F800C0B0
:104B10000026189C0F469346BCF1000F0CD0DDE92F
:104B20001601199B02AA13C20593DDE91423CDE9EE
:104B30000023DCF800405CE00A9805EB0B013A1812
:104B4000DDE91403521E491E184301286BD1844E1F
:104B5000B6F90630D81B002808DD0A9F3F1A0A97CD
:104B6000002F4BDD1F46179B00FB0344B6F90A00DC
:104B7000101A002804DD0A9A101A0A9000283DDD58
:104B8000B6F90800081A002801DDABEB000BB6F9F6
:104B900004000022A8421FDD421B1698ABEB020B5B
:104BA000042836D00BDC01282BD0022814D122F0A7
:104BB000030004EBA204054402F003020CE0684980
:104BC000B1F90410491B294408282AD0102803D120
:104BD00004EB42040D460022BBF1000F0EDD1798D6
:104BE000CDE90242199B0493169B01900093B06C8F
:104BF000C4685A46394628460A9BA0470BB0BDE810
:104C0000F08F22F0070004EBE204054402F00702F3
:104C1000E2E722F0010004EB6204054402F0010225
:104C2000DAE71444D6E716980597C0F10800039018
:104C3000002004904AE015990598494A08440690D6
:104C4000401E0290B2F90610814237DC1046B0F9DE
:104C50000A000599884231DB0027A246A846B946DA
:104C60002AE017B91AF8016B0827039936FA01F000
:104C7000169906FA01F6F6B2A7EB010703D13849F7
:104C8000097B890714D4364949880191199909B1DA
:104C900031F81000324948801499404608EB01026F
:104CA000521E029B0599FFF70CFF2D490198488081
:104CB000149909F101098844D945D2DB0498401CB4
:104CC0000490069805901798044404980A9988421D
:104CD000B1DB93E72248816C001D096A084710B5D3
:104CE000FFF7F8FF07F08DF9044601F07AFD042084
:104CF000FFF79EFE40F6FF72002113460846FFF7BD
:104D0000E0FE0020FFF794FE07F080F9204610BD7A
:104D10001349896C096808471149896C4968084733
:104D200010B50F494A6B824205D04863FFF7F0FF88
:104D3000BDE8104073E610BD10B509490A6B824208
:104D400005D00863FFF7E4FFBDE810405EE610BD44
:104D5000034A0146127B401E520700D408467047A2
:104D6000F4B900205003002000F0B6BF01F03CBDB4
:104D700000F0BDBF00210180418040F2DF11818041
:104D800040F20F11C18070477CB5064C0546A06CFF
:104D9000016A684688476A462946201DFEF71FFFBC
:104DA0007CBD0000F4B900204FF4F07070474FF460
:104DB000887070474FF4F07070474FF488707047F8
:104DC000102070474FF48030704701207047012059
:104DD000704740F2352070472DE9F84FDDF828A0E4
:104DE0000400884693461F4621D00026B4F90010DF
:104DF0003046002900DB08468146B4F9020000284D
:104E000000DB0646FFF7D0FF411EB4F9040000F0B6
:104E100058F80546FFF7CBFF411EB4F9060000F035
:104E200050F8A5EB0904641C851B6D1C08E04FF0CD
:104E300000094E46FFF7B8FF0446FFF7B8FF0546E6
:104E400007B96F42002C01DD002D02DC0020BDE817
:104E5000F88F3B46224631464846CDF800A001F087
:104E600094FD5FEA000A04D1584641468847012074
:104E7000EDE7504602F07AFA0746504601F0B7FDDA
:104E8000002415E0291BB94202DA504602F084FAE8
:104E90003CB132194946504602F098FA504602F0A9
:104EA00049FA584641468847504601F089FE3C443D
:104EB000AC42E7DB504601F0E9FC002001F097FD31
:104EC000C4E7884200DD084670472DE9F34F83B000
:104ED0000546FCF759FF0499401A02905CD04FF048
:104EE0000009002640F6FF7A3746CAF1000BB5F9F3
:104EF000184030E02046FCF732F9804603C8CDE97F
:104F00000001B5F902004242B5F90000414268468D
:104F1000FFF7F4F8BDF90200B5F94210884218D144
:104F2000BDF90610081A0499401C884211D1B8F83E
:104F30001C00000607D5BDF90400584509DD2746C9
:104F4000BDF900B005E0BDF90000504501DA264684
:104F50008246B8F91A40002CCCD15EB1029A304694
:104F6000114602F0B9FE0298002209FB00F130461A
:104F700002F078FE67B1029A3846114602F0ACFEA4
:104F80000299002209FB01F04142384602F06AFE14
:104F900009F101093E43A4D105B0BDE8F08F70B519
:104FA0000C461546002808D0FCF7D9F801682A46B7
:104FB0000B682146BDE87040184770BD10B5002849
:104FC00006D0FCF7CCF801684968BDE810400847F6
:104FD00010BD10B5002806D0FCF7C1F8016889683B
:104FE000BDE81040084710BD2DE9FF410D461F46A2
:104FF0000446DDE90B3116460A980D9A8DE80F003C
:105000003B4632462946204602F095FC04B0BDE8F6
:10501000F0811FB50A46090703D5FE2340F28A51E5
:1050200002E0FF2340F28A318DE80F0000231A4688
:105030001946184602F07FFC0446062100F0E0FB0A
:10504000204604B010BD00007CB5B0F904500646FF
:105050002846FCF784F8044631462846FDF7F1FB64
:10506000002826D030680B2824D00F2826D1606B6A
:10507000FFF762FEE06AFBF78FFE284602F05CFF56
:1050800020B9A06BFFF74CFEFCF760F9B4F92800DB
:1050900000280ED0FCF763F805460220FBF7A6FEB9
:1050A0006846FEF7D4FBB4F9302069462846FEF77F
:1050B00045FF7CBD04F12800FCF7AAF83046BDE8A6
:1050C0007C40FEF7ABBA2DE9FF4704460D460CA81D
:1050D00090E8030616461F4689B21C23224A41F077
:1050E0000101DDF840808DE80F003B46324629463D
:1050F0002046FDF79EFF060029D00025FCF77CF92D
:105100003046FCF72CF8044600225146FDF793FB8D
:10511000B8F1000F0ED0404603F090F9401C00B2E9
:10512000FBF7DFFB050005D02846FCF718F84146E1
:1051300003F060F925850D48A4F830900168E1621C
:105140006FF07041A16340686063FCF74DF9304631
:1051500004B0BDE8F087054908607047034948601E
:105160007047024800687047495000080404002056
:105170001CB501460822684603F07FF90020FFF7BE
:10518000DBFDBDF90630BDF90420BDF90210BDF903
:105190000000FBF7B7FA6FF07F40FFF7CDFDBDF9D8
:1051A0000420BDF90010BDF90200921E491C401CEC
:1051B000FBF70CFCBDF90620BDF90210BDF900009B
:1051C000921E491C401CFBF72BFC4F48FFF7B4FD17
:1051D000BDF90420BDF90010BDF90600521E491C9E
:1051E000401EFBF7F3FBBDF90620BDF90210BDF927
:1051F0000400921E491C401EFBF712FC1CBD1CB58E
:1052000001460822684603F038F90020FFF794FDB4
:105210003E48FFF791FDBDF90420BDF90010BDF92E
:105220000200FBF7D3FBBDF90210BDF90620491CB3
:10523000BDF90000FBF7F4FB0020FFF77DFDBDF991
:105240000420BDF90010BDF90200521E491C401C8B
:10525000FBF7BCFBBDF90620BDF90210BDF900004B
:10526000521E891C401CFBF7DBFB6FF07F40FFF7F1
:1052700063FDBDF90010BDF90420491CBDF906000D
:10528000FBF7A4FBBDF90210BDF90620491CBDF9CE
:105290000400FBF7C5FB1E48FFF74EFDBDF90420D7
:1052A000BDF90010BDF90600521E891C401EFBF717
:1052B0008DFBBDF90620BDF90210BDF90400521E98
:1052C000891C401EFBF7ACFB1CBD1CB56846FEF7F5
:1052D000BEFA6846FFF793FF1CBD10B50446FEF703
:1052E000B6FA21462046BDE810400222FBF7ECBA90
:1052F0001CB56846FEF7ABFA6846FFF739FF1CBDE0
:105300000448FDF794BB000055555500808080008F
:10531000C0C0C0006C6801082DE9FC47DFF8F480CC
:105320000646D8F810500C4691461F4615B3082281
:105330002146684603F0A1F8BDF80020D8F84000E7
:105340000244ADF80020BDF80220D8F844100A4409
:10535000ADF80220BDF804201044ADF80400BDF8FB
:1053600006000844ADF8060069462846FEF718FF17
:1053700000284DD0F6B33078E0B33A464946684647
:10538000FEF72DFCBDF90230B4F904205B1EB4F920
:105390000210B4F90000FBF7A9FFBDF90020BDF928
:1053A0000630521EBDF90210B4F90000FBF79EFF53
:1053B000BDF90400BDF90630B4F90420BDF90210AE
:1053C000401CFBF793FFBDF90610B4F90630B4F9A1
:1053D0000420491CB4F90000FBF788FF4846FEF79B
:1053E00079FB04460020FBF701FDB7F90220B7F96D
:1053F000001000E007E0304600F046FD2046BDE822
:10540000FC47FEF767BB2046BDE8FC4700F0B7BC91
:10541000BDE8FC87F4B9002070B50C46002550B1FA
:105420004CB1FBF79CFEB0F91600A04201D101255A
:1054300001E00028F5D1284670BD884201D1012045
:105440007047E9E710B50124FBF789FE808BC006A1
:1054500000D50024204610BD2DE9FF5F0F46904681
:105460009946B0F91800DDF838A05AE05846FBF725
:1054700076FE0546818B44C801F4207080280DD04B
:10548000B0F5207F02EB07031DD1104663F30F0038
:1054900006EB0903344663F30F0402E002EB090351
:1054A000F3E701F4A061B1F5807F11D0B1F5A06FF1
:1054B00039D108EB204161F31F40211453461944B0
:1054C00061F31F4407E0104663F30F00F319E1E7AF
:1054D0000AEB2041EFE701B213B2CDE9023100142B
:1054E0001214CDE90020C91A821A51EA020002D032
:1054F000584602F0B7FB039920B2401A029A31B223
:10550000891A019A411A009BC2EB2440C3EB264240
:10551000821A51EA020002D0584602F0DDFBB5F9CA
:105520001A00834606E008EB204161F31F40211476
:105530004346C4E7BBF1000F98D1BDE8FF9F2DE9BA
:10554000F0410646FBF758FFCEB13046FBF707FEA9
:105550000546304602F0B4FA040010D0304600F0A0
:1055600088F8FBF7FCFD07462046FBF7F8FD698B42
:105570004183388B68833E832846FDF764FBBDE892
:10558000F041FBF731BF0000FDF751BD70B5054696
:10559000FBF732FFFDB12846FBF7E1FD0446B0F909
:1055A0001A00C0B1A18B090704D4FBF7D8FD808B8A
:1055B000000710D4B4F916402846FDF722FB214617
:1055C0002846FDF7E3FA2846FDF731FD002204499D
:1055D000284602F0ACFABDE87040FBF705BF0000BA
:1055E000895500080B490A68026008607047094B3A
:1055F0001968002905D00022814206D108680AB145
:10560000106070470028186070470A460968002932
:10561000F2D17047D40300200EB530B122210091A1
:105620006946FDF76BFB02980EBD6FF070400EBD32
:105630000EB500210291172100916946FDF75EFB2E
:10564000029800B20EBD00000148B0F9000070479A
:10565000C603002070B505004FF0000407D0FBF72B
:10566000CBFE2846FBF77BFD848BFBF7BDFE204677
:1056700070BD10B5040008D0FBF7BEFE2046FBF756
:105680006EFDB0F91640FBF7AFFE204610BD0000DE
:1056900010B50446FBF7B0FE6CB11448B0F9000039
:1056A00010B91348B0F93C00FBF759FD0146082238
:1056B000204602F0E2FEBDE81040FBF795BE70B553
:1056C00004000D4610D0002D0ED0FBF795FE2046AD
:1056D000FBF745FD20B101460822284602F0CDFE29
:1056E000BDE87040FBF780BE70BD0000CE03002017
:1056F000F4B90020B0F90410B0F90000081A401CF9
:105700007047B0F90610B0F90200081A401C704743
:1057100010B50446FBF770FE204600F01FF8FBF7BB
:105720001EFDB0F90410B0F900000C1A641CFBF760
:105730005BFE204610BD10B50446FBF75DFE20461B
:1057400000F00CF8FBF70BFDB0F90610B0F9020001
:105750000C1A641CFBF748FE204610BD002801D13E
:10576000FDF70BBD704710B5040014D0FBF744FEE5
:105770002046FBF7F4FC818B8A0708D521F0020153
:1057800081832046FBF7EBFC2146FDF745FBBDE896
:105790001040FBF729BE10BD10B50446FBF72CFEE8
:1057A0002046FDF7C7FA0446FBF71EFE204610BD53
:1057B0002DE9F04104000D4616461FD0FBF71CFEF4
:1057C0002046FFF756FFA8B1FBF7C9FC0746204665
:1057D000FBF7C5FC0246B0F90010B7F90000B2F9BA
:1057E0000220081A291AB7F90200101A321A2046A4
:1057F00002F0F8F9BDE8F041FBF7F6BDBDE8F08135
:105800000EB5262202910092694600F00EF80EBDF8
:1058100070B504460D46FBF7EFFD2946204602F021
:1058200071F9BDE87040FBF7DFBD70B505460C00AF
:105830000DD0FBF7E1FD2846FFF71BFF18B1E5800F
:105840002146FDF75BFABDE87040FBF7CDBD70BDAA
:105850002DE9FF4107460C46164602F085F91F4D1B
:1058600048B90121384602F007FB206828806068AB
:105870006880BDE8FF812846B5F900202168B0F9AD
:1058800002008D1A61680C1A3EB922462946384634
:1058900004B0BDE8F04102F0E5B902A93846FFF7CF
:1058A0000EFF3846FFF7E5FE6946FFF708FF224680
:1058B000294602A8FEF722FC324669466846FBF7F5
:1058C00003F8694602A8FEF76BFC0028D1D02246F7
:1058D0002946384602F0C6F9CBE700000C04002048
:1058E0002DE9FF410021074601A80A460B460EC0DC
:1058F000FBF782FDD7B3214CB4F90000874236D0C4
:105900001F210191ADF800000021ADF80270039154
:1059100010B101A9FDF7F2F9012003903846278064
:1059200001A9FDF7EBF9039E6C46212506BB05E0B6
:1059300001A9384601950394FDF7E0F93846FFF7D1
:1059400098FE0700F4D1BDF900703846FFF724FF38
:1059500070B105E001A9384601950394FDF7CEF931
:105960003846FFF786FE0700F4D101E0FFE7012685
:10597000FBF73AFD304604B0BDE8F081CC030020CF
:1059800070B506004FF000041FD0FBF735FD304620
:1059900002F086F80146304600F019F80546044644
:1059A00006E02146304600F012F80446A84205D031
:1059B000204602F0E5F808B9002CF2D12046FFF7A6
:1059C0008FFF00B10024FBF70FFD204670BD70B5BE
:1059D00005460C0005D02046FBF7C1FBB0F91A00C4
:1059E00020B92846FBF7BBFBB0F91800A04200D154
:1059F000002070BD0EB5002807D0002905D0242254
:105A0000029100926946FDF779F90EBD70B5040068
:105A10000E46154619D0FBF7EFFC2046FBF79FFB1F
:105A2000B0F90410B0F90020891AB0F90620B0F9D5
:105A30000200711A101A2A1A491E521E204602F03C
:105A40004BF9BDE87040FBF7CFBC70BD70B50400EA
:105A500012D02046FDF7EBFA204602F077F8044614
:105A600008E02046FBF77BFB05462046FFF7EEFFEC
:105A7000B5F91A40002CF4D170BD10B5040011D056
:105A8000FBF7BAFC2046FBF76AFB818B8A0705D43B
:105A900041F0020181832046FFF7D8FFBDE81040A6
:105AA000FBF7A2BC10BD10B504000CD0FBF7A4FCA2
:105AB0002046FBF754FB818B41F004018183BDE854
:105AC0001040FBF791BC10BD10B504000DD0FBF7E2
:105AD00093FC2046FBF743FB818B4DF6FB72114094
