:020000040800F2
:10000000E848002001010008050100080701000878
:10001000090100080B0100080D01000800000000A4
:1000200000000000000000000000000011010008B6
:100030000F010008000000005302000801980008AA
:10004000E79A000893950008A1980008A196000877
:10005000937D00089D960008857D0008897D000835
:100060008B7D00088D7D00088F7D0008E5740008F9
:10007000797500087B7500087D7500087F7500089C
:100080008175000883750008D1720008E39A0008A2
:10009000E59A0008E1740008E3740008917D000807
:1000A000A3980008A9980008A7980008A598000838
:1000B000AB980008AD980008AF9800088F8400083E
:1000C0008D8400089384000891840008A39600089A
:1000D000A59600089399000895990008979900083B
:1000E000877D00089F960008E19A00080000000044
:1000F0000000000000000000000000000000000000
:1001000004480047FEE7FEE7FEE7FEE7FEE7FEE7FE
:10011000FEE700001901000800F002F800F05AF8AC
:100120000AA090E8000C82448344AAF10107DA4552
:1001300001D100F04FF8AFF2090EBAE80F0013F04A
:10014000010F18BFFB1A43F001031847F412010016
:10015000141301000A444FF0000C10F8013B13F097
:10016000070408BF10F8014B1D1108BF10F8015B10
:10017000641E05D010F8016B641E01F8016BF9D103
:1001800013F0080F1EBF10F8014BAD1C0C1B09D15A
:100190006D1E58BF01F801CBFAD505E014F8016BCC
:1001A00001F8016B6D1EF9D59142D6D3704700005E
:1001B0000023002400250026103A28BF78C1FBD870
:1001C000520728BF30C148BF0B6070471FB51FBD25
:1001D00010B510BD06F0A0FF1146FFF7F7FF09F0BC
:1001E000B1FC06F0BEFF03B4FFF7F2FF03BC06F05C
:1001F000C3FF000002480349034A044B7047000054
:10020000E8400020E8480020E8440020E8440020BE
:10021000EFF3108072B6704780F31088704724485F
:100220004FF0FF010170002080F309881D48012173
:10023000017020484FF08051016062B6FEE71D4812
:100240004FF08051016070471A484FF080510160B3
:100250007047EFF3098028B1203880E8F00F124989
:100260000968086000B50A4880475DF804EB0B4850
:100270000B490A7802700C480C490A680260106841
:1002800090E8F00F203080F309884EF0040E70479C
:10029000878E0008A18900083E0000204000002051
:1002A0004100002043000020600000206800002082
:1002B00022ED00E004ED00E072B6704762B67047D0
:1002C000EFF3108072B6704780F31088704700001B
:1002D00030B40246544C0B46401C07D0581C05D085
:1002E0006068411C02D0A1684D1C02D14FF0FF3064
:1002F0000146C4E9012330BC01F0A6BD4A48C068EC
:1003000070474948006970474748A521243001607B
:1003100040F653614160FA21816040F6C961C160D5
:100320007047F0B5059EEF2408B140F23F149D1BC5
:1003300000D56D42142D04DB8D1A00D56D42142DAD
:1003400001DA0120F0BDF51A4E42521A6E43364FC3
:1003500096FBF2F62437611A4D4395FBF2F11E44E9
:1003600047F83060194407EBC00041600020F0BD41
:100370002D4B10B5243353F8304003EBC0000C6014
:100380004068106010BD70B5274D274C2435D5E965
:100390000001884202DAC4E9050101E0C4E9051060
:1003A000D5E90201884202DAC4E9070101E0C4E9A3
:1003B0000710207838B907F0FBFF206107F0BCFF79
:1003C0002078401C2EE007F0B9FFE06007F0B3FF93
:1003D000D4E90412E068904208DBA269904205DC8F
:1003E000E269914202DB226A914203DD4FF0FF3065
:1003F000014614E02A68801A00EB0013C3EB0020CA
:100400006B689A1A90FBF2F3AA68881AC0EB801105
:1004100001EB0020E968891A90FBF1F11846FFF71B
:1004200057FF0020207070BD8C0000202DE9FC419A
:1004300004460D4616461F4601F052FF042001F007
:10044000CDFF33498046086C496C044406440D4492
:100450000F44ADF80040ADF80460ADF80250ADF8BF
:100460000670684601F079F807E03B4632462946B7
:10047000204601F0FCFF01F049F80028F5D1404684
:1004800001F0ACFF01F024FFBDE8FC8110B50021B4
:10049000084601F0E5FB40F6FF725042BDE810400F
:1004A00013460146C2E770B51A492E20087007F0BE
:1004B000C5FF1948164C0068251D2561A064201D44
:1004C00002F02EF91548A06515482561A0610120AC
:1004D000207503F041F8A087032084F85C006FF0DA
:1004E000704020636063002002F0F0F86FF07F40FE
:1004F00002F0F8F80B48E06101F03AFF02F0C5F8AD
:10050000044601F010FA01F039FF204670BD0000EA
:10051000E4240020C000002064010020189E000890
:100520007CD2000838CB000830B4F84BB3F9024055
:100530008C4210DCB3F906408C420CDBB3F900406E
:10054000844208DCB3F90430834204DBF04B1B68BF
:100550005B6A30BC184730BC7047EC4AB2F90230D5
:100560008B420DDCB2F906308B4209DBB2F9003068
:10057000834205DCB2F90420824201DB08F047B96E
:1005800000207047E14A10B5203A9068002813D047
:1005900041681369591A02F1180319808468526975
:1005A000121B5A80046824882144491E99800068DF
:1005B00040881044401ED88010BDD44910B5203961
:1005C000097849B120B1D149083901F0D7FB18B1F8
:1005D00000F0ACF9012010BD002010BD00F0B0B952
:1005E00010B501F07DFEC94920398878401E10F011
:1005F000FF00887001D100F0A3F9BDE8104001F0C0
:1006000067BE10B501F06CFEC04A203A9078411CDC
:10061000917008B900F08AF9BDE8104001F058BEA9
:100620002DE9F047064601F05BFEB84F203FB86861
:10063000814686422FD035680424E8680068042883
:1006400000DC0446DFF8C48208F1080807E0E86827
:10065000806850F8240002F031F828F81400641E75
:10066000F5D200F063F92888698848434400F868A7
:10067000844205D0B7F9040001F02BFD0020B880BA
:1006800020B201F063FAB88001207870BE60FFF7F5
:1006900079FF00F055F901F01BFE4846BDE8F087F0
:1006A00010B501F01DFE00F041F9984900202039F5
:1006B00048709849086098490860BDE8104001F00A
:1006C00007BE10B501F00CFE9448806C016A8F489B
:1006D000884700F02BF98D480121203841708D4A60
:1006E0008F4911608C4A8F491160806818B98E4813
:1006F000FFF796FF01E000F023F9BDE8104001F09C
:10070000E7BD2DE9F34F8FB001F0EAFD7F4B203BB1
:10071000B3F9040000287ED001221C690F9D114608
:10072000AC4200D100215C69109DAC4200D1002296
:100730001143F0D075492039497800296CD0734CA9
:10074000203CA1680968039101F077FC0490A0683F
:100750000068018805910F9B2269A3EB02084FF006
:10076000FF33B8F1000F08DD01220D9200220C9139
:10077000491ECDE90A180E9208E0491ECDE90D3157
:100780000021CDE90B130E9941440A91109A616939
:10079000A2EB010BBBF1000F08DD0121099140889C
:1007A00000250890401ECDE9060B8DE00993458891
:1007B0006D1E0020CDE9070305EB0B00069083E0DA
:1007C0000799002005EB0B078D4203DB06998D424C
:1007D00000DC01200290079900208F4203DB06997C
:1007E0008F4200DC012001900E9C68E0049804EB2D
:1007F000080600EB440105982A46684301EB4009CE
:100800002146039801F0D0F900210B9A8246084650
:10081000944208DB01E063E05AE00A9A944202DC69
:10082000029A02B101200B9A964205DB0A9A96427F
:1008300002DC019A02B101210091BAF1000F14D03B
:1008400038B1A5EB0B02A4EB0801039801F0ACF959
:1008500058B92E48B9F800200838B0F90210B0F99C
:10086000000029442044FFF75FFE009838B1049847
:1008700000EB46010598784331F810000AE0234860
:100880000838B0F90210B0F9000039443044FFF7DD
:1008900064FE80B2A9F80000BAF1000F0DD05046F6
:1008A00000F023F882B219480838B0F90210B0F904
:1008B000000039443044FFF737FE0D9804440C988B
:1008C000844293D109980544089885427FF478AF13
:1008D0000E490F982039086110984861FFF752FEC1
:1008E00011B0BDE8F04F01F0F3BC042804DA074969
:1008F000083131F8100070470449203989680968C7
:10090000C968896851F8200001F0D8BEFC000020B9
:1009100064010020D4000020D8000020E42400203E
:10092000BB050008DD0500082CCB000810B54E4CB7
:100930002078002803D000F00FF80020207010BDB0
:1009400049484178002906D08178002903D1012146
:10095000017000F03BB870472DE9F04701F0C0FC92
:10096000414CB4F9040068B301F067FB064604F19A
:100970001800B0F90410B0F9002080468F1AB0F9C1
:100980000610B0F902207F1C891A01F10109002527
:10099000A24615E000240AE0B8F90210B8F90000F8
:1009A00036F8142029442044FFF7BEFD641CBC42E5
:1009B000F2DBDAF808006D1C0068008806EB4006E0
:1009C0004D45E7DBBDE8F04701F082BC2DE9F0477B
:1009D00001F086FC2449B1F90400F0B38968D1F82C
:1009E00000A001F02AFB204F06461837B7F9040093
:1009F000B7F90010401A00F10108B7F90600B7F97D
:100A00000210401A00F10109002524E000241BE037
:100A1000B7F902004119B7F900002044FFF79DFD26
:100A200026F814002A462146504601F0BDF850B180
:100A3000FFF75BFF0246B7F902004119B7F9000062
:100A40002044FFF771FD641C4445E1DBBAF8000067
:100A50006D1C06EB40064D4500E000E0D6DBBDE82E
:100A6000F04701F035BC0000DC0000203F48006882
:100A700070473E49024608680A6070473EB500224A
:100A80006C46134615462CC42A22029100926946F0
:100A900000F05EFA3EBD0EB500226946134694464C
:100AA00081E80C102A210091694600F051FA029861
:100AB0000EBD2DE9F8430D4616461946DDE908231B
:100AC000044600962668B047064602F039FD804687
:100AD000618A304602F0C1FB304602F0C4FD404658
:100AE00007E00023009354F8187F1A464146204639
:100AF000B84702F0B8FD6D1E002DF2DC304602F062
:100B000061FD1E21404602F03DFD3046BDE8F88300
:100B100070B505460C46FFF7BEFF08B1012112C0B3
:100B20002846BDE8704000F040BA1CB50022694676
:100B300013460CC16946FFF7A1FF04E001F028F855
:100B400008B907F06FFC00980028F7D001981CBD89
:100B50007CB514461D46DDE90623CDE900232B466E
:100B60002246FFF7A6FFBDE87C40DEE70C0100202F
:100B7000F0B587B00F4615461E4604460C9BB0F9EB
:100B800008104268408ACDE904230023CDE90073B0
:100B9000CDE90201B4F90C00B4F910308119B4F9AF
:100BA0000A00B4F90E20284402F0FFF807B0F0BDA7
:100BB0002DE9F04106460F4601F092FB8EB130461A
:100BC00001F03BFA044601F059FE05462046A762B3
:100BD00002F09FF82946204602F082F9304600F0E4
:100BE00050FBBDE8F04101F073BBF0B50F46154670
:100BF0001E460446B0F90820418A436885B00220A9
:100C0000CDE9007002A80EC0B4F90C00B4F91030A0
:100C10008119B4F90A00B4F90E20284402F009FA47
:100C200005B0F0BD70B504000D460CD001F058FBC6
:100C3000204601F002FAC562204600F022FBBDE822
:100C4000704001F045BB70BD70B504000D4610D07A
:100C500001F046FB204601F0F0F92946283000F06B
:100C600054FF10B1204600F00CFBBDE8704001F0CD
:100C70002FBB70BD70B504000D460CD001F030FBE9
:100C8000204601F0DAF94563204600F0FAFABDE8A3
:100C9000704001F01DBB70BDB0F90010B0F9042028
:100CA000914205DCB0F90210B0F90600814201DD85
:100CB00000207047012070477CB50D4601F0BDF95A
:100CC0000446808B81071CD540F6010108400128AD
:100CD00017D02846FFF7E0FF002812D02246294609
:100CE000684600F0E9FE6846FFF7D6FF002808D006
:100CF000A08B810606D504F108016A46084600F07B
:100D0000BFFF7CBDDDE90012C4E9021240F0200003
:100D1000FB49A083C888401CC8807CBD0B46B0F945
:100D20000220B0F90010184600F0D7BF7CB5F54C92
:100D30000546A16B21B92846BDE87C4001F0FABC0C
:100D40000822684606F09EF8ED48B0F9120008B98E
:100D5000B4F93C0001F071F96946FFF7DFFF29465D
:100D6000684600F08CFE684601F0E4FC7CBD2DE98D
:100D7000F04107460E46304601F05FF90446808B8D
:100D8000800711D52146384600F079FEB4F9165097
:100D90000DB12E46EFE7DA480A30B0F90000B04254
:100DA00002D10120BDE8F0810020FBE71CB5D44C46
:100DB000607818B1BDE81C40D348B7E7D148B0F916
:100DC0003C0001F03AF903C8CDE90001B4F9121072
:100DD00011B16846FFF7CBFF6846FFF7A7FF1CBDC0
:100DE0002DE9F04706460C0013D0304601F025F9F6
:100DF000002141830546C482204601F01EF90746C2
:100E0000A88BB7F9189000F00808B9F1000F02D1CB
:100E10003E83BDE8F087484601F00FF90446B8F17B
:100E2000000F05D1A08B000702D5A5F81A90EFE7B7
:100E3000B4F91A700FB96683EBE7384601F0FDF894
:100E4000B8F1000F05D1818B090702D566836F8346
:100E5000DFE70446ECE770B5054601F0EEF804461E
:100E6000B0F9160000280AD001F0E7F80646B0F9FC
:100E70001800A8420ED101F0E0F8408B308370BD1D
:100E800001F0DBF80146B0F91A00A84202D1608BEC
:100E9000488370BD0028F3D170BD70B5054601F0E0
:100EA0001FFA9748B0F9084008E029462046FFF7A6
:100EB00003FF204601F0C1F8B0F91440002CF4D132
:100EC000BDE8704001F004BA70B5054601F0B5F810
:100ED0000446C08A002807D02846FFF7BCFF2046FA
:100EE000FFF7DBFF0020E08270BD70B5044601F023
:100EF000F7F9844DB5F93C6014B98148B0F9084060
:100F0000AC87204601F099F8044601F0B9FBB4F92A
:100F100000002864B4F90200686401F0D9F9304691
:100F200070BD70B505467648B0F908000DE001F0D7
:100F300084F8B0F914100446A94205D1284601F0FE
:100F40007CF8808AA08270BD08460028EFD170BD71
:100F500070B504000D460ED001F0C2F9204601F034
:100F60006CF8016919B1AC80016928468847BDE871
:100F7000704001F0ADB970BD0EB50091ADF8040040
:100F80006946FFF7E5FF0EBD10B504465C48B0F9B1
:100F9000080007E0A04201D1012010BD01F04DF88A
:100FA000B0F914000028F5D110BD70B504004DD083
:100FB00001F096F92046FFF7E7FFF0B3204601F075
:100FC0003CF805464E4E0020B082B6F91010A14202
:100FD00000D13082B6F90E10A14200D1F081B16982
:100FE00005E0B1F90420A24200D1888009680029F7
:100FF000F7D10721204602F0BDFAB5F9180000F03C
:1010000026F80B212046FFF7B7FF2046FFF75CFFCD
:101010002046FFF786FFA88BC10702D0716A491EE0
:101020007162800602D5F088401EF080B088401EB4
:10103000B080204601F04DF800E003E0B6F908006A
:10104000FFF753FFBDE8704001F042B970BD70B5C5
:10105000044608E0204600F0F0FFB0F91A502046A0
:10106000FFF7A3FF2C46002CF4D170BD15E72DE946
:10107000FC410E4690463EE000F0DFFF848B0546C3
:10108000A00736D5B8F1000F05D04246294668467C
:1010900000F012FD03E0D5E90001CDE90001694649
:1010A000304600F06BFE20B3E00712D1B5F9020024
:1010B000B6F90210884205DDBDF90200401E03E0CA
:1010C000F08016E0BDF90600B6F906108842F7DB9D
:1010D0000FE0B5F918400AE0204600F0AEFF0746E1
:1010E0006A4631462046FFF7C2FFB7F91A40002C86
:1010F000F2D1B5F91A000028BED1BDE8FC8100008C
:1011000010010020E4240020582500202DE9FC4790
:1011100088469146002634E000F08FFF848B054618
:10112000A0072CD5B9F1000F05D04A4629466846DC
:1011300000F0C2FC03E0D5E90001CDE900016946F9
:10114000404600F01BFED0B1E00706D1BDF8040018
:10115000401CA8F80000012611E0B5F918400CE089
:10116000204600F06AFF07466A4641462046FFF7E0
:10117000CDFF00B10126B7F91A40002CF0D1B5F926
:101180001A000028C8D13046BDE8FC872DE9FC4193
:101190000E46904630E000F050FF848B0546A007D5
:1011A00028D5B8F1000F05D042462946684600F020
:1011B00083FC03E0D5E90001CDE900016946304632
:1011C00000F0DCFDB0B1E00704D1BDF80000401E26
:1011D000B0800FE0B5F918400AE0204600F02DFF7E
:1011E00007466A4631462046FFF7D0FFB7F91A4056
:1011F000002CF2D1B5F91A000028CCD17DE70022ED
:101200004A800A8082880388D21A8A80C2884088ED
:10121000101AC88070472DE9FF4106000F462ED0F6
:1012200001F05EF8304600F008FF858B0446A80701
:1012300023D5D4E90001CDE9020167B1082239467E
:10124000684605F01FFE69462046FFF767FD6946C0
:1012500002A800F014FC314602A8FFF788FD60B137
:1012600040F601000540012D03D102A8FFF715FE4D
:1012700003E002A93046FFF71FFD01F029F8BDE8A1
:10128000FF810021C7E72DE9F05FDDE90A65074628
:10129000884691469B46DDF834A001F021F8FB4CCE
:1012A000A08905432EB9A08818B104F10A00B0F94D
:1012B0000060701C01D1002619E0C6B1304600F074
:1012C000BCFEB0F90010B0F902200F449044B9F10F
:1012D000000F04D1B0F90430591A01F10109BBF132
:1012E000000F04D1B0F90600801A00F1010B0AF1D9
:1012F000200000B200F02AFC5FEA000A4FD0E34869
:10130000E2498088401C8880504600F096FE0780A5
:1013100007EB0901A0F80280491E818008EB0B0150
:10132000491EC1800C9901610446818B43F68F7080
:1013300028400143D548A183B0F9080050B100F01E
:101340007CFE0746504600F078FEB98A8182A7F8F5
:1013500014A002E0CD49A1F808A031465046FFF79D
:101360003FFDA80602D55046FFF7BFFDE80703D0B2
:10137000C649486A401C4862680602D5504602F0D9
:10138000A1F8A80707D5A08B002140F00200A08398
:101390005046FFF740FF01215046FFF7EDFD00F0FA
:1013A00097FF5046BDE8F09F2DE9FF410D461646D8
:1013B0001F460AA90EC9044600208DE80F003B46CF
:1013C000324629462046FFF75EFF04B0EAE4B04803
:1013D000B0F93C0070472DE9FC41AE4ED6E9020160
:1013E000CDE90001306920B93088ADF8000070887F
:1013F00010E0B089401C00B2ADF800007189ADF872
:101400000210B6F90410884206DD3088ADF80000FD
:10141000F089401CADF80200BDF90200B6F90610D3
:1014200088426BDC9A4FB7F93C0000F006FE054697
:10143000BDF90000B6F9001088421BD1F088ADF864
:101440000600B088ADF80400B7F93C000AE000F0EF
:10145000F4FD0446B0F91A0000226946FFF707FEC2
:10146000B4F916000028F2D1B5F918000022694637
:10147000FFF7FDFDBDF80000ADF80400B7F93C0032
:101480000CE000F0DAFD0446B0F91A0000226946CB
:10149000FFF73CFE0028EDD1B4F916000028F0D18A
:1014A000B5F9180000226946FFF730FE0028E1D1A7
:1014B000B6F90400BDF90010ADF80400884204DA62
:1014C000DDE90001C6E902019FE7B7F93C000AE047
:1014D00000F0B3FD0446B0F91A0000226946FFF798
:1014E00055FEB4F916000028F2D1B5F91800002213
:1014F0006946FFF74BFE3069C82801DD0020FCE596
:10150000DDE90001C6E902010120F6E570B55F4C96
:10151000607808B9002070BD5E4D6869012802DD61
:10152000401E6861F6E7207820B1002020705A48FC
:10153000006880472869401C2861FFF74CFF08B904
:101540006869EDE7FFF732FC5448016819B151486A
:10155000083088472070012070BD2DE9FF414B4EB7
:101560008046707810B9FFF721FC05E0494D6869A5
:10157000401C6861012801DD012026E7444FB7F9CE
:101580003C0000F05AFD04464FF0FF302861B0786F
:1015900030B1082204F1080102A805F073FC06E04E
:1015A000A08B80072CD5D4E90001CDE90201B8F168
:1015B000000F03D0414602A800F061FAB86B90B169
:1015C00001460822684605F05DFCB6F9120010B12C
:1015D00000F033FD044669462046FFF79FFB69464D
:1015E00002A800F04CFAB6F9121019B102A8FFF7E0
:1015F000BEFB28B1B7F93C1002A8FFF7B8FB20B931
:101600006869401E68610020DFE6DDE9020103C56C
:10161000FFF77CFFD9E610B500F0EEFB1C49002077
:10162000886310BDFEB505460A69888B002A2BD059
:10163000820729D5154E4FF00F07B27801F1080443
:10164000521CB270C0040AD5ADF804500097029441
:10165000FFF7E1FF69462846FFF77AFC11E02046D4
:10166000FFF77BFF0BE0ADF8045000970294FFF703
:10167000D2FF69462846FFF76BFCFFF747FF0028BB
:10168000F1D1B078401EB070FEBD00001001002006
:10169000E424002050250020D8000020D4000020A1
:1016A0002DE9F047D74C81460D46B4F93C0000F0D7
:1016B000C4FC08302946804600F060FB00281BD09F
:1016C000D4E910674246294605F1080000F0F4F914
:1016D000DFF834832946A8F81290B5F90000206499
:1016E000B5F9020060644846FFF79CFF0021A8F8A6
:1016F00012100120C4E91067BDE8F0872DE9F0471A
:101700000446808B8007F7D5B4F9186004F1080906
:101710001AE0304600F091FC0546808BC0438007FC
:1017200010D14946284600F029FB58B1D4E9027887
:1017300029463046FFF7B4FF10B12846FFF7DEFF19
:10174000C4E90278B5F91A60002EE2D1D4E770B589
:1017500001464C6840F60102A18BB0F9000011402F
:10176000012902D02146FFF75DFFA748406A002803
:1017700023D02046FFF7C2FFB4F91660B4F91A501F
:1017800019E0284600F059FC0446808BC0438007CE
:1017900003D121462846FFF783FF2046FFF7AEFF1F
:1017A000B4F91A50002DECD1304600F046FCB0F9E7
:1017B0001A50B0F91660002EF4D170BD2DE9F04139
:1017C000904F8046B7F93C0000F037FCD0E9025654
:1017D000D7E90112C0E9021204464046FFF7B7FFFD
:1017E000C4E90256BDE8F081F0B5874E99B0306A81
:1017F00000B180478548006808B1804710B900F003
:1018000093FA10B1012019B0F0BD707820B3F088C0
:1018100010B300F065FDB6F90850B6F914000124C4
:1018200000B1054601A800F0C5FA0BE0284600F01B
:1018300004FC07460146284600F0A3F800B1641EE8
:10184000B7F914500DB1002CF0D1B58201A800F009
:10185000B5FA00F03DFDD5E70020D4E710B500242F
:1018600000E00124FFF7C0FF0028FAD1204610BD98
:1018700070B5B0F9045004468668284600F0DDFBD8
:101880002168172911D007DC0E2910D0142917D18F
:101890003146FFF7B4FC13E022290ED028290FD1DE
:1018A0002846BDE870400021B5E4A56070BD214622
:1018B0002846BDE8704001F072BE6FF0704000E055
:1018C0000020A06070BD10B5044600680E2810D03E
:1018D0000F280AD14C486FF070411C3000688842D4
:1018E00003D000F073FAFEF7D1FD2046BDE81040AA
:1018F000BEE7A0684168012904D10068BDE8104036
:1019000000F0FFB910BD404901204870704710B584
:101910003D490020487000F0E3FC00F0B1FEBDE856
:10192000104000F0D5BC3EB5374CE078002827D1F8
:1019300020813449A0828863E080A080344A02215B
:10194000CDE9001240F6FF72029013460146FFF700
:101950002BFD04F10A0528806FF0704104F11C0290
:101960001160FFF78EFC2B4801F0D0FD2A4801F0F2
:10197000CDFDB5F90000FFF7B8FA01206070E07006
:101980003EBD70B50646888B002586B00C468006A5
:1019900035D5206900B3314604F10800FFF7E7F9B7
:1019A000D0B1ADF8106030460594FFF79EFAA08BD9
:1019B000400712D5D4E90201CDE90201A08B40F322
:1019C0000003E08A5B1C00B900230093002304AAF3
:1019D000124902A800F0BEFE03E004A8FFF7B7FE1C
:1019E0000125A08B20F02000A08380B2810402D5C5
:1019F00040F00400A0830448C188491EC1802846E5
:101A000006B070BDE424002010010020C8000020B2
:101A1000C718000898010020A0010020BD17000889
:101A200070B50D46002600F008FBB0F9184011E033
:101A3000204601F097FDA84201D1204670BD2946FD
:101A40002046FFF7EDFF060006D1204600F0F5FA2C
:101A5000B0F91A40002CEBD1304670BD70B50400CF
:101A60000E464FF0000508D000F03AFC3146204603
:101A7000FFF7D6FF054600F02BFC284670BDB0F9F5
:101A80000030B1F90020934200DA0280B0F9023050
:101A9000B1F90220934200DA4280B0F90430B1F982
:101AA0000420934200DD8280B0F90620B1F90610CF
:101AB0008A4200DDC180704770B5B1F90030B2F9DB
:101AC0000040A34200DC23460380B1F90250B2F982
:101AD0000240A54200DC25464580B1F90440B2F938
:101AE0000460B44200DD34468480B1F90610B2F9D6
:101AF0000620914200DD1146C1809C4201DBA942D3
:101B000001DA002070BD012070BD2DE9F0410546CD
:101B10000E460027B0F9000001F056FF98B130469C
:101B200001F062FF401C00B200F079FA04000AD014
:101B3000204600F082FA314605F061F9284600F0AF
:101B4000D5FA2C8001273846BDE8F08170B50546EE
:101B500000F0C6FB284600F062FA040006D02046DA
:101B600000F06BFA2A46002101F0E8FE00F0B0FB1D
:101B7000204670BD10B50B480024006810B18047A6
:101B800000B10124FFF76AFE00B10124204610BD18
:101B900010B5002400E00124FFF7ECFF0028FAD183
:101BA000204610BDC4000020C388042B2DD012DCB9
:101BB000012B1CD0022B3AD183888068534303EB5E
:101BC0009102805C062202EA4101C1F10601C8408F
:101BD00000F003007047082B23D0102B27D18388F7
:101BE0008068534303EB41010844008870478388B1
:101BF0008068534303EBD102805C01F00701C1F11F
:101C00000701C84000F00100704783888068534393
:101C100003EB5102825CC90702F00F00F4D11009F6
:101C200070478388806802FB0311405C7047002086
:101C30007047000010B5044600F052FB0F48848442
:101C4000002400F045FB204610BD10B5044600F00E
:101C500047FB0A484484002400F03AFB204610BDAC
:101C600070B505460C4600F03BFB04484584002552
:101C7000848400F02DFB284670BD0000E424002081
:101C800030B4002821D011B30AB3B1F90030B2F951
:101C90000040A34200DD23460380B1F90230B2F9CF
:101CA0000240A34200DD23464380B1F90430B2F97B
:101CB0000440A34200DC23468380B1F90610B2F948
:101CC0000620914200DC1146C18030BC704701B94A
:101CD000114630BC082205F0D5B800280BD0038887
:101CE0000B440380838819448180418811444180DA
:101CF000C1881144C18070471F49002248684A606A
:101D000070471D494A68002A00D14860704700B5F5
:101D1000FFF7F2FF0028FBD100BD174A083203C2CB
:101D2000154901200860704770B5002400F0D8FA0A
:101D30001149086878B1401E01F108040860D4E92F
:101D40000051284603F06AFB6068012802D128464A
:101D5000FFF7D7FF012400F0BBFA204670BD70B535
:101D600004460D4603F05AFB002804D129462046BC
:101D7000BDE87040D1E770BD3C010020B0F9022001
:101D8000B1F906309A4213DCB1F90220B0F90630FD
:101D90009A420DDCB0F90020B1F904309A4207DC18
:101DA000B1F90010B0F90400814201DC0120704754
:101DB000002070476022044905F0EBB8014660221C
:101DC000014805F0E6B80000E424002010B5044600
:101DD00000F086FA204600F079FCBDE8104000F0E3
:101DE00077BA10B5044600F07BFA204600F07AFC82
:101DF000BDE8104000F06CBA10B50020FFF7E6FF18
:101E00006FF07F40FFF7EDFF012001F0DBFF0020C6
:101E100002F038F8002002F043F8002002F00AF83F
:101E2000084802F013F8BDE81040002002F01CB88A
:101E300010B500F055FAFFF7DFFFBDE8104000F0E5
:101E400047BA00007CD2000830B40C4C2268831AD8
:101E500000D55B4262688A1A00D552421A44022AAF
:101E600003DD03C430BC02F029B830BC7047034A1C
:101E70001368036050680860704700004C01002040
:101E800000787047012070470120704701700120E1
:101E9000704710B500F024FA04490348C861BDE852
:101EA000104000F015BA000038CB0008E4240020F0
:101EB0002DE9F04780464FF0FF390020BE4F1BE070
:101EC00037F81200498806EB4605014437F915003A
:101ED000411A0CB244450EDA6CB1B849014407EB23
:101EE0004500B0F90220081B05F011F837F815007D
:101EF000001B27F81500304600EB400207EB4201BB
:101F00000E79002EDCD100EB400107EB420237F9DD
:101F10001110B2F90220114441F28832521A42459E
:101F200000DB81460FFA89F0BDE8F087A4489D21C7
:101F30004160816041F28831C181018200210160EC
:101F400081819D4804224280018001719D490120C8
:101F5000087070472DE9F041044600F027F9E41CB1
:101F600024F00300DFF8588204B2B8F90E00A04252
:101F700018DB914E012000EB400106EB410149883E
:101F800009B905B203E0401C9E28F4DB00254DB1E1
:101F9000204600F0E0F8411C07D12046FFF788FFFB
:101FA000411C02D10020BDE8F08100EB400236F870
:101FB000121006EB420CBCF8022005EB45078B180B
:101FC0009CF8041006EB4702548026F81730117174
:101FD00021B101EB410106EB41014D7150718CF8CB
:101FE0000450D8F800004146401CC8F80000D8F85A
:101FF0000400401EC8F80400D8F80820824200DD22
:102000008860888920448881C889001B00B2C88103
:10201000B1F91020824200DD08822846C3E710B5DE
:10202000040000D110BD00F05BF92046FFF792FFDD
:10203000044600F04DF9204610BD002806D05E4948
:1020400000EB400031F910005C490844704710B5BE
:1020500000F0ACF85A48B0F90E0010BD70B500247D
:1020600000F03EF900F0A2F80021534A0DE032F8EA
:1020700013106B88194400EB400332F81330591ADF
:1020800009B2A14200DD0C46014601EB410302EB1F
:10209000430528790028EAD101EB410002EB430116
:1020A00032F810004988084441F28831081A00B219
:1020B000A04200DD044600F00BF9204670BD002868
:1020C00006D03D4900EB400001EB4000B0F90200B2
:1020D000704710B5040008D000F002F9204600F067
:1020E00013F8BDE8104000F0F3B810BD10B5044679
:1020F00000F0F6F8B4F90000FFF7EBFF00202080B5
:10210000BDE8104000F0E4B82B4A10B500EB4000E9
:1021100002EB4001B1F9020000281BD0284BDC89FA
:102120000444DC819C89201A988100204880087929
:10213000497901EB410402EB4404207120B100EB2A
:10214000400002EB400041715868401C586018681C
:10215000401E186010BD30B50021174C0CE034F95A
:102160001330B5F902502B4402EB420534F91550F7
:10217000EB1A834215DA114601EB410304EB4305E8
:102180002A79002AEBD101EB410204EB430334F935
:102190001220B3F902301A4441F288339A1A82426B
:1021A00001DB08B230BD4FF0FF3030BD054800788C
:1021B000002800D1BAE67047F038002068250020DA
:1021C000A43C0020540100202DE9F0433F4D04467B
:1021D000A86987B0B5F92A608069214600F06BF8DC
:1021E000002847D041680088201A01EBC004A77876
:1021F000304600F0F3F862688146CDE903722B4661
:10220000012005930290A869C37D827DCDE900235A
:10221000037D2278B5F92410B5F9220000F047F9C2
:10222000A869477D017D8F4219D9C07D474301FBD5
:1022300000F8022E13D001F09FFD064601F086FD46
:10224000FFF7CFFDB5F9220021784218B5F9241027
:10225000CB19414400F00BF93046FFF7C2FD484668
:1022600000F0BCF8AA69B5F922006178927D01FB03
:102270000200688407B0BDE8F08370B5134C0546D2
:10228000A0692946806900F016F8002807D0416847
:102290000088281A11F83000A169897D484370BD73
:1022A00001200880704710B5806900F004F800280C
:1022B00000D0012010BD06E002888A4202D8428880
:1022C0008A4202D280680028F6D17047E4240020B8
:1022D00036494868401E486001D106F0D1B87047C1
:1022E00070B5324E706820B106F0A0F8B16888422F
:1022F00004D006F0BBF806F099F8B0607068401C96
:102300007060012833D10024294D06F08FF804EBCA
:10231000C40101EB041155F8211081420BD031B9F1
:1023200004EBC40101EB041145F8210003E0641C37
:10233000042CEADB00243068844218D0002815DB26
:1023400000EBC00101EB001005EB8000001D6022D6
:10235000184904F01EFE04EBC40000EB041005EB6A
:102360008001091D6022134804F013FE346070BD23
:102370000E494FF0FF30086006F06AB82DE9F041D1
:1023800000240B4E254604EBC40000EB041706EBBB
:102390008700001D6022074904F0FBFD641C46F81D
:1023A0002750042CEFDBBDE8F0810000580100202D
:1023B000B83C0020E424002010B50446012000F0C1
:1023C0009DF9D24921F8104010BD10B504460020F7
:1023D00000F094F9CD4921F8104010BD10B5CB495B
:1023E0000246087B80EA02035B0703D50B884C8812
:1023F0000C804B800A7310BD30B4C44AB2F9063069
:102400008B4217DCB2F90A308B4213DBB2F904308D
:1024100083420FDCB2F9083083420BDB137BDC070D
:1024200013469B6C02D09A6A30BC104752885B6A94
:1024300030BC184730BC704730B4B44CB4F90630E7
:102440008B42F7DCB4F90A308B42F3DBB4F9043089
:10245000834200DD1846B4F90830934200DA1A4688
:102460008242E7DBA36C1B6930BC1847E2E730B45B
:10247000A64DB5F90440844200DD2046B5F9084078
:10248000944200DA22468242D4DBB5F906408C42FF
:1024900000DD2146B5F90A409C4200DA23468B4212
:1024A000C8DBAC6CA469A44630BC6047C2E72DE928
:1024B000FF4F0546964887B0D0F800C00026189C0C
:1024C0000F469346BCF1000F0CD0DDE91601199BB5
:1024D00002AA13C20593DDE91423CDE90023DCF839
:1024E00000405CE00A9805EB0B013A18DDE91403A3
:1024F000521E491E184301286BD1844EB6F906308E
:10250000D81B002808DD0A9F3F1A0A97002F4BDDD1
:102510001F46179B00FB0344B6F90A00101A002857
:1025200004DD0A9A101A0A9000283DDDB6F9080069
:10253000081A002801DDABEB000BB6F904000022FD
:10254000A8421FDD421B1698ABEB020B042836D0C5
:102550000BDC01282BD0022814D122F0030004EB5D
:10256000A204054402F003020CE06849B1F904102A
:10257000491B294408282AD0102803D104EB42041F
:102580000D460022BBF1000F0EDD1798CDE9024287
:10259000199B0493169B01900093B06CC4685A4633
:1025A000394628460A9BA0470BB0BDE8F08F22F0C1
:1025B000070004EBE204054402F00702E2E722F020
:1025C000010004EB6204054402F00102DAE714445E
:1025D000D6E716980597C0F10800039000200490F4
:1025E0004AE015990598494A08440690401E029011
:1025F000B2F90610814237DC1046B0F90A0005999D
:10260000884231DB0027A246A846B9462AE017B91E
:102610001AF8016B0827039936FA01F0169906FAA1
:1026200001F6F6B2A7EB010703D13849097B890708
:1026300014D4364949880191199909B131F810002B
:10264000324948801499404608EB0102521E029B11
:102650000599FFF70CFF2D4901984880149909F15D
:1026600001098844D945D2DB0498401C049006989F
:1026700005901798044404980A998842B1DB93E7BF
:102680002248816C001D096A084710B5FFF7F8FF62
:1026900006F0C1F8044601F0EAFC0420FFF79EFEB4
:1026A00040F6FF72002113460846FFF7E0FE0020C7
:1026B000FFF794FE06F0B4F8204610BD1349896C6C
:1026C000096808471149896C4968084710B50F49DE
:1026D0004A6B824205D04863FFF7F0FFBDE8104027
:1026E00073E610BD10B509490A6B824205D0086334
:1026F000FFF7E4FFBDE810405EE610BD034A014667
:10270000127B401E520700D408467047E424002084
:10271000D000002001F0B4B801F0C2BC01F0BBB899
:10272000002101804180EF21818040F23F11C18072
:10273000704700007CB5064C0546A06C016A6846EF
:1027400088476A462946201DFFF7B6F97CBD000080
:10275000E42400202DE9F84FDDF828A00400884685
:1027600093461F4621D00026B4F9001030460029B8
:1027700000DB08468146B4F90200002800DB06466B
:1027800001F078FC411EB4F9040000F058F8054649
:1027900001F072FC411EB4F9060000F050F8A5EB00
:1027A0000904641C851B6D1C08E04FF000094E46AF
:1027B00001F060FC044601F05FFC054607B96F427A
:1027C000002C01DD002D02DC0020BDE8F88F3B4627
:1027D000224631464846CDF800A001F032FD5FEABE
:1027E000000A04D15846414688470120EDE750468B
:1027F00002F018FA0746504601F055FD002415E096
:10280000291BB94202DA504602F022FA3CB13219D1
:102810004946504602F036FA504602F0E7F958466B
:1028200041468847504601F027FE3C44AC42E7DB76
:10283000504601F087FC002001F035FDC4E78842D6
:1028400000DD08467047000070B504460D46FFF7EE
:10285000F4FBB0F85C100A0725B1002A0DDB41F04B
:10286000080103E0002A08DA21F00801A0F85C1052
:102870002046BDE87040FEF704BD70BD10B50146AE
:10288000CA8C0020920607D5B1F94000002803D178
:10289000886A01F07DFA801C10BD2DE9F05F4FF0D1
:1028A000000805460C46C146B0F9426002F0B8FC8B
:1028B0008346284602F0BBFC8246E88C800601D5A0
:1028C000B5F944902846FFF7D9FF0746B5F94E0001
:1028D00010B102F0C6FC80462780A4F80280ABEB62
:1028E000060006EB0901A680401ECA19208102EBF2
:1028F0000801E180AAEB0601491E6181A6812082C0
:10290000F019E681401E6082B5F9180022E0FFF759
:1029100094FBB0F90010B5F90020B0F90430891A21
:102920009A1AB0F90230B5F90270DB1BB3420FD12D
:10293000838B1B0606D5B4F910208A4208DB491E9A
:10294000218205E0B4F90C10914201DC521CA281F5
:10295000B0F91A000028DAD1BDE8F09F2DE9F04F58
:102960008BB00446FEF733FD06464FF0000B02F035
:1029700065FC0546304602F074FC0646B4F9428018
:1029800005A92046FFF789FFB4F85C00C0F3C00733
:10299000B4F9500010B1FFF750FB8346BDF81800A2
:1029A000ADF80C00BDF81C00ADF81000BDF8220019
:1029B000ADF80E00401CADF82200BDF82000BDF8B7
:1029C0002610401CADF81210ADF82000BDF8240010
:1029D000401EADF82400A06A01F038FAB4F95A306C
:1029E00008A901AA58460A9100F058FFBDF9140041
:1029F00000EB080A0020FEF7B0FD002844D0AAF141
:102A0000010904EB8707F86AFFF760FE786BFFF7B0
:102A100069FE01AB03A958460A9A02F033FAFF484F
:102A2000FFF760FE0021A8F101036A1E084601F0CD
:102A30004DF9BDF918200021521E731E084601F001
:102A400045F9BDF91C00731E401C6A1E002101F0EF
:102A50003DF9BDF91E10731E491C6A1E002001F0CD
:102A600035F9B4F944006A1E00EB09035146002011
:102A700001F02CF9B4F94200022801DB02F0EEF972
:102A8000FEF744FD0028BED10BB0BDE8F08F70B555
:102A900004000D4609D0FFF723FC29462046FFF726
:102AA000D3FEBDE87040FFF713BC70BD2DE9F041C7
:102AB000B0F90460054688B03046FFF7BEFA044618
:102AC000D5F80880476E05E07968284688470028D1
:102AD00028D13F68002FF7D12868172845D032DC6D
:102AE0000D2875D021DC0B2871D00C283CD1AD68A5
:102AF000002D17D0287A002814D0B4F85C00000705
:102B000002D4304602F0ECFD304602F00DFBB4F882
:102B10005C00C00606D5C2482946B0F90020304600
:102B200002F096FD08B0BDE8F0810F2819D01428F6
:102B30007AD103A92046FFF7B0FE082204A9404637
:102B400004F0A0F9EEE71F2821D021284DD0262837
:102B50000ED02A2868D1A86808B12066E2E7206E66
:102B60002DE02046FFF7FAFE5EE0B4F94C0026E0C7
:102B7000A8680228D6D1ADF80660A8680290272080
:102B80000090B5F906006946FEF7E2F9CAE7A868C1
:102B9000012816D1B4F95E0002F089FB20B1B4F926
:102BA0005E0002F09DFD05E0B4F94C0000F00AFD66
:102BB000A4F85E0001213046FFF769FF0020A860FD
:102BC000B0E700213046FFF762FFABE700E027E007
:102BD000B4F85C00000727D4A8688068F8B1007AD0
:102BE000E8B1304602F07CFD1EE0AF68BFB1B7F936
:102BF0000200314602F0FBF920B101213046FFF717
:102C000023FE11E000213046FFF71EFEB7F9000059
:102C1000314602F0DBF910B13888A4F85E0003E019
:102C200004F15000FFF762FA2946304600F049FBF4
:102C3000002887D02846FEF71BFE73E72DE9FE43E8
:102C40000446B0F90400074602F0DCFA8046FFF7BC
:102C5000F4F90546866C2068172855D008DC0E2844
:102C60003CD00F280CD014284ED015284CD042E070
:102C70001F2819D020282AD022283CD1E86B24E034
:102C8000E86B6FF07041884203D0FFF71FFDFDF73E
:102C9000FDFB002E06D00ECC68460EC0ADF80470C9
:102CA0006846B047BDE8FE83A0680028FAD0B5F9B1
:102CB0005E0020B1B84202D002F012FD04E03846B6
:102CC00000F080FCA5F85E000020A060EAE7214645
:102CD000404603B0BDE8F04300F0F3BAA068416895
:102CE000002908DD0068092805D1384600F06AFC93
:102CF000A5F85E00D6E73EB1A4F804802046B446AD
:102D000003B0BDE8F04360472046BDE8FE43FEF750
:102D1000AFBD10B50446B0F84C0086B018B9B4F891
:102D20004E00002829D001A92046FFF7B6FDB4F9CE
:102D30004C00A8B1BDF90A20BDF9081002F045FB0E
:102D4000BDF90E00BDF90A10421ABDF90C00BDF91B
:102D50000810521C411A491CB4F94C0002F01CFD29
:102D6000B4F94E00002808D0BDF90A10BDF90620BC
:102D70008A1ABDF9081002F028FB06B010BD70B524
:102D800004000D4610D0FFF7ABFA2046FFF755F9C7
:102D900029465030FEF7B9FE10B12046FEF771FA11
:102DA000BDE87040FFF794BA70BD2DE9F04F89B0CF
:102DB00005460E4612A890E8030E17469C4641F4BD
:102DC00080544823174AA1B2DDF85C808DE80F00DB
:102DD00063463A4631462846FEF755FA06004BD080
:102DE000FFF77EFA3046FFF728F9054630225146B4
:102DF00000F061FA0A492022091D05F1280004F0BB
:102E0000C8F8002048356882C5F80080A5F81490FD
:102E1000E882E880E861483D04A905E0AAAAAA0082
:102E200068010020AD2A00082846FFF736FD41F270
:102E30008271CDE900610023284ACDE90223BDF962
:102E40001A00BDF91610BDF91820431ABDF9140077
:102E50005B1C121A521CFEF716FAA5F84C0042F23F
:102E60000400044202D1304602F00BFD59463046C0
:102E7000FFF785FFFFF72CFA304609B005E670B57D
:102E800005000C4611D0FFF72BFA2846FFF7D5F8BE
:102E9000B0F95A10A14204D0A0F85A402846FEF7D3
:102EA000F0F9BDE87040FFF713BA70BD70B50400CB
:102EB0000D4611D0FFF714FA2046FFF7BEF830F8A0
:102EC0005C1F15B141F0100101E021F010010180FB
:102ED000BDE87040FFF7FCB970BD00003D2C000854
:102EE0002DE9F34F83B00546FFF7C8FC0499401A5B
:102EF00002905CD04FF00009002640F6FF7A37467A
:102F0000CAF1000BB5F9184030E02046FFF795F8FC
:102F1000804603C8CDE90001B5F902004242B5F987
:102F2000000041426846FEF7D8FEBDF90200B5F93F
:102F30004210884218D1BDF90610081A0499401CA5
:102F4000884211D1B8F81C00000607D5BDF904006D
:102F5000584509DD2746BDF900B005E0BDF9000080
:102F6000504501DA26468246B8F91A40002CCCD1E9
:102F70005EB1029A3046114602F06CFA02980022C5
:102F800009FB00F1304602F002FA67B1029A3846B6
:102F9000114602F05FFA0299002209FB01F041425A
:102FA000384602F0F4F909F101093E43A4D105B015
:102FB000BDE8F08F7CB5B0F9045006462846FFF70F
:102FC0003CF804463146284600F07BF9002826D01C
:102FD00030680B2824D00F2826D1606BFFF782FBC6
:102FE000E06A00F033FF284602F028FC20B9A06B0D
:102FF000FFF76CFBFDF74AFAB4F9280000280ED061
:10300000FFF71BF80546022000F04AFF684602F071
:10301000D4F8B4F930206946284600F0B1FD7CBDF3
:1030200004F12800FFF762F83046BDE87C40FEF767
:103030001FBC2DE9FF4704460D460CA890E8030687
:1030400016461F4689B21C23224A41F00101DDF8D1
:1030500040808DE80F003B46324629462046FEF769
:1030600012F9060029D00025FFF73AF93046FEF79D
:10307000E4FF04460022514600F01DF9B8F1000FAC
:103080000ED0404603F0DFFE401C00B2FEF75EFDAE
:10309000050005D02846FEF7D0FF414603F0AFFEFD
:1030A00025850D48A4F830900168E1626FF0704109
:1030B000A16340686063FFF70BF9304604B0BDE8D8
:1030C000F087054908607047034948607047024827
:1030D00000687047B52F00088C0100207CB50D46B4
:1030E000016A4C69D0E90212CDE900126946FDF788
:1030F00015FEB5F90000BDF900102044884214DC2B
:10310000B5F90400BDF90410001B88420DDBB5F9C8
:103110000200BDF902102044884206DCB5F9060021
:10312000BDF90610001B884201DA01207CBD002099
:103130007CBD30B5858800881488281AD588938886
:10314000451B0D805288801A88804C80CB8030BD12
:103150001CB5C08C0C4600070FD5684602F02DF850
:10316000BDF802002080BDF80600A080BDF8000078
:103170006080BDF80400E0801CBD2046BDE81C4016
:1031800002F01BB810B502F03DF801F0F9FF6FF046
:103190007041884203D1BDE81040FDF767BC10BD07
:1031A00070B505460C46FEF72AF8286A21464269A2
:1031B0002046BDE8704000F0E7BBC18C090704D58C
:1031C000B0F90610B0F9020003E0B0F90410B0F94C
:1031D0000000081A401C7047C18C090704D5B0F9DB
:1031E0000410B0F9000003E0B0F90610B0F90200D5
:1031F000081A401C704710B50446FEF71EFFC08C2D
:103200000007204603D5BDE8104002F02AB8BDE80B
:10321000104002F013B870B505460C46FFF760F891
:103220002846FEF70AFFC18CA14203D0C484284679
:10323000FEF727F8BDE87040FFF74AB870B5040004
:103240004FF0000507D0FFF74BF82046FEF7F5FEDC
:10325000C58CFFF73DF8284670BD70B505000C46DB
:1032600011D0FFF73DF82846FEF7E7FEC18C34EA9F
:10327000010204D02143C1842846FEF702F8BDE8CC
:103280007040FFF725B870BD70B504000D4611D031
:10329000FFF726F82046FEF7D0FEC28C22EA050191
:1032A0008A4203D0C1842046FDF7EBFFBDE87040A1
:1032B000FFF70EB870BD824B1B680362C284818425
:1032C000704738B505460C46FEF7B7FE216816294B
:1032D0003CD00ADC0D2930D0112924D0142953D038
:1032E000152957D1B0F9240048E01F2931D02029F1
:1032F00046D0B1F5407F4DD1016A4A69A1680162AB
:103300004869141AFEF7ECFF2846FEF796FE614264
:1033100023460A46009401F092FEFEF7D9FF2846A4
:10332000FDF7AFFF33E0C08CC00633D5A068007A4C
:1033300078B3284602F0D4F92CE0A068806840B346
:10334000007A30B3284601F0EFFE20E0A1688184C6
:103350001DE0A168C08C012906D140F0010128467A
:10336000FFF759FF082105E020F001012846FFF78B
:1033700052FF0921284600F0FDF80020A06006E079
:10338000C08CC0F30010F9E7A168FFF709FF002027
:1033900038BDFFE70120FBE770B50E460546144631
:1033A000FE21FEF75BFB314602F0EAF9FF212846D9
:1033B000FEF754FB2146BDE8704002F0E1B91CB5B0
:1033C0000B46C18C1446090704D51A466946FFF717
:1033D000B0FE6B462146184600F0D8FB1CBD1FB559
:1033E0000446084611461A46E38C1B0715D5ADF86E
:1033F0000800ADF80C00ADF80A10ADF80E2002AAD6
:1034000069462046FFF795FEBDF90420BDF900107E
:10341000BDF9020000F00AFC1FBD04B0BDE8104079
:1034200000F02EBC1CB503460846D98C090705D50B
:10343000024669461846FFF77CFE6846BDE81C4018
:1034400000F070BC7CB505460C0003D1684601F065
:10345000B4FE6C46E88C000705D52246694628462E
:10346000FFF767FE6C4621462846FFF737FE002827
:1034700003D0286AC168204688477CBD0021E1E767
:103480007CB50546C08C0C46000705D5224669462A
:103490002846FFF74EFE6C4621462846FFF71EFEE3
:1034A000002803D0286A8168204688477CBD0449EB
:1034B000024608680A6070470148006870470000CB
:1034C000940100202DE9F0410646FEF709FFCEB138
:1034D0003046FEF7B2FD0546304601F063FD0400BC
:1034E00010D0304601F08EFEFEF7A7FD07462046BD
:1034F000FEF7A3FD698B4183388B68833E832846A2
:10350000FDF7CBFCBDE8F041FEF7E2BE0B490A68CF
:10351000026008607047094B1968002905D0002235
:10352000814206D108680AB110607047002818600F
:1035300070470A4609680029F2D170472801002027
:103540000EB500210291172100916946FDF700FD9B
:10355000029800B20EBD00000148B0F900007047AB
:103560001A0100200EB5152100916946FDF7F0FC07
:1035700002980EBD0EB5262202910092694600F017
:103580000EF80EBD70B504460D46FEF7A9FE29469D
:10359000204601F03FFDBDE87040FEF799BE70B5D2
:1035A00005460C000DD0FEF79BFE284601F02AFED2
:1035B00018B1E5802146FDF7CBFCBDE87040FEF771
:1035C00087BE70BD70B506004FF000041FD0FEF737
:1035D00087FE304601F0D6FC0146304600F019F86F
:1035E0000546044606E02146304600F012F804463F
:1035F000A84205D0204601F04CFE08B9002CF2D1BB
:10360000204602F06DF800B10024FEF761FE20466E
:1036100070BD70B505460C0005D02046FEF70DFDC7
:10362000B0F91A0020B92846FEF707FDB0F91800D6
:10363000A04200D1002070BD70B5040012D0204619
:10364000FDF71FFE204601F0CFFD044608E02046AE
:10365000FEF7F3FC05462046FFF7EEFFB5F91A40EA
:10366000002CF4D170BD10B5040011D0FEF738FE67
:103670002046FEF7E2FC818B8A0705D441F0020167
:1036800081832046FFF7D8FFBDE81040FEF720BE3B
:1036900010BD000070B5764C0546A08848B1B4F95D
:1036A0000410284601F092FC18B9B4F90400A842AD
:1036B00001D1012070BD002070BD3EB50C460EC981
:1036C000054668460EC06946284601F095FC0D2067
:1036D000ADF80650009009E0284601F093FD050082
:1036E00004D069462846029401F086FC284601F081
:1036F000DEFD0028F0D13EBD70B58C6806460D4653
:1037000064B13046FEF799FCB0F900202168891AAF
:103710002160B0F902006168081A606029463046ED
:10372000BDE87040C9E72DE9F0438FB0002704A839
:1037300000F060FBFEF7D4FD0AA8FFF7E7FE4D4C52
:1037400004992068884208D160680599884204D1AC
:10375000207A9DF8181088426FD0DDE90401FCF74B
:10376000D0FF4548B0F9000018B9DDE9040101F0C7
:103770001AFFADF82C00BDF92C00FFF78BFF0DF1FF
:103780001009002867D0217A9DF81800814220D0C6
:10379000BDF82C00E8B1BDF92C00FEF74EFC9DF8F9
:1037A00018108DF80C10217A8DF80D10B0F900204A
:1037B0000499891A0191B0F902000599081A02903A
:1037C00001A80E9011200C90BDF92C000CA901F05D
:1037D00013FC217A9DF8180001433CD00C21244DA4
:1037E000012708350C91B5F90410BDF92C200026ED
:1037F0000DF11C08914212D0A98881B108B10E9632
:1038000007E02068079060688DF824600890CDF884
:103810003880B5F904000CA9FFF76EFFAE80BDF843
:103820002C00C0B148460DC841460DC19DF824008A
:1038300020B1BDF82C00A88006E00FE00F4800780A
:1038400008B101F0EAFEAE80BDF92C00CDF8388059
:103850000CA9FFF751FF48460EC80EC40AA8FFF78F
:103860005AFEFEF735FD38460FB0BDE8F083000084
:1038700098010020442500201E010020380100206E
:10388000C0F3C401C0F38522C0F3C44000EB421072
:1038900000EBC12070474FF6FF7070472DE9F041F3
:1038A0000C461746984680B302F04DFB064608F0DA
:1038B000030001280DD0022810D1B4F90410B4F986
:1038C0000000091A891B491C01EBD17100EB61054D
:1038D00006E0B4F90400851B6D1C01E0B4F900504A
:1038E00002F0D0FB014608F00C0004280ED00C2892
:1038F00011D1B4F90620B4F90200121A521A521C5E
:1039000002EBD27200EB620007E010E0B4F90600AF
:10391000401A401C01E0B4F902003D807880AA19E9
:10392000521E0844BA80401EF880BDE8F08121464E
:103930003846BDE8F041082203F0A4BA10B502E011
:1039400000F8011B521E0AB18307F9D1930818D061
:1039500001EB014402F0030204EB042406E00460DE
:103960004460846040F80C4F001D1B1F042BF6DAE6
:1039700001E010C05B1E002BFBD102E000F8011B30
:10398000521E002AFAD110BD0B88134403808B8885
:103990009B1A83804B8813444380C988891AC1804D
:1039A0007047000000B90FA001B90EA102780B7892
:1039B0009A4207D110F8012F491C002AF6D1087845
:1039C000002800D00120704710B502000C464FF0CF
:1039D000000002D01046FEF730FB2146BDE8104043
:1039E000E0E70000000000004FF0FF3120B110F8C8
:1039F000012B491C002AFAD1084670472DE9FF4FD8
:103A000085B000240E4691469A462546DDF814B04E
:103A100002F08FFA80462EB10822314603A803F047
:103A200031FA02E003A802F07FFA19F00C0F02D17C
:103A3000BDF90E4029E05746012610E039460598A9
:103A400002F0A1FB3F1A0146059802F0F4FA05992D
:103A50000844059005A802F023FA10B9761C002F3F
:103A6000ECD109F00C00042813D0082811D00C2840
:103A70000BD1BDF91210BDF90E000A1A06FB182170
:103A8000491C01EBD17100EB61045646CDF814B02E
:103A90004CE0BDF9121006FB1814641CF5E7314622
:103AA000059802F070FB0746361A0146059802F0A9
:103AB00082FB19F003010ED001290FD0022911D188
:103AC000BDF91010BDF90C20891A091A01EBD1714A
:103AD00002EB610506E0BDF90C5003E0BDF91010E2
:103AE0000D1A6D1C2849401E4D842844ADF808006D
:103AF000ADF804508C8404EB0800401EADF80A00B9
:103B0000ADF8064001AA3946059802F06BFB39462C
:103B1000059802F090FA05990844059002F0B2FA6F
:103B2000044405A802F0BCF9002801D1002EB6D14A
:103B300009B0BDE8F08F2DE9FC4105000E4617469F
:103B400098461BD00024FEF7CBFB66B1304602F04E
:103B500049FD040007D0224631466846FDF7ACFF18
:103B6000684602F03FFD43463A4631462846FFF795
:103B700045FF204602F036FDFEF7AAFBBDE8FC81BA
:103B800047F6FF73D7E70000E42400201CB50A467F
:103B900001466846FFF7F8FEFEF7A2FB2248BDF893
:103BA0000020016C0A44ADF80020BDF80220406CF2
:103BB0000244ADF80220BDF804201144ADF8041011
:103BC000BDF806100844ADF806006846FDF7C5FCD0
:103BD00025E0BDF900400AE0BDF902102046FEF7DD
:103BE0000BFCBDF906102046FEF706FCA41CBDF92F
:103BF0000400A042F0DABDF902400AE0BDF900007D
:103C00002146FEF7F9FBBDF904002146FEF7F4FB5F
:103C1000A41CBDF90600A042F0DAFDF777FC0028ED
:103C2000D7D1FEF755FB1CBDE42400202DE9FC4153
:103C300004460D461646FEF753FB104F386C796C60
:103C4000054406440C44ADF80050ADF80460ADF8EE
:103C50000240ADF806406846FDF77FFC07E0B86D0E
:103C600032460368214628469847FDF74FFC002856
:103C7000F5D1FEF72DFBBDE8FC810000E424002017
:103C80007CB504460D461646FEF72AFB0E48016C2D
:103C9000406C0C4405440644ADF80040ADF80440C7
:103CA000ADF80250ADF806606846FDF756FC06E038
:103CB00032462946204602F0E7FAFDF727FC0028A5
:103CC000F6D1FEF705FB7CBDE42400202DE9FC4184
:103CD00004460D4616461F46FEF702FB1049086CC7
:103CE000496C044406440D440F44ADF80040ADF85F
:103CF0000460ADF80250ADF806706846FDF72DFC83
:103D000007E03B46324629462046FEF7B0FBFDF76A
:103D1000FDFB0028F5D1FEF7DBFABDE8FC810000D1
:103D2000E4240020B0F90630B0F90420B0F9021004
:103D3000B0F90000FFF7CABF10B5FEF7D1FA02F0E4
:103D4000C1FA0446FEF7C4FA204610BD10B5FEF7CE
:103D5000C7FA02F0B7FAFEF7B5FC0446FEF7B8FA68
:103D6000204610BD10B5FEF7BBFA02F0AEFA0446CD
:103D7000FEF7AEFA204610BD10B5FEF7B1FA02F01C
:103D8000A4FAFEF79FFC0446FEF7A2FA204610BDF7
:103D9000017DC07D48437047417DC07D48437047E9
:103DA00010B5FEF79DFA1248047DFEF791FA204601
:103DB00010BD10B5FEF794FA0D48447DFEF788FA61
:103DC000204610BD70B50546FEF78AFA0848047D06
:103DD0000575FEF77DFA204670BD70B50546FEF705
:103DE0007FFA0348447D4575FEF772FA204670BDA0
:103DF000E42400200C490EC980E80E00007A002857
:103E000000D00120704710B50446094907480860F2
:103E10000C222146044802F0C6FF002802D00ECC36
:103E200001480EC010BD0000483E002027370008A2
:103E3000C800002010B50446FEF752FA2046FEF7EF
:103E4000CDFA0446FEF744FA204610BD70B5054E83
:103E50000446B569FEF744FA04B1B461FEF738FAD6
:103E6000284670BDE424002070B50546FEF738FAF8
:103E70000348847D8575FEF72BFA204670BD00004F
:103E8000E424002070B50546FEF72AFA0348B0F98D
:103E90002C408585FEF71CFA204670BDE4240020E6
:103EA00070B50546FEF71CFA0348B0F92A4045856F
:103EB000FEF70EFA204670BDE4240020064A0028D2
:103EC00005DB002903DB0123137203C201E000209C
:103ED0001072014802F058B8543E00202DE9F04F0E
:103EE000DFF850B18BB0BBF922200A92DBF8182022
:103EF000BBF924A094694FF0FF36A189884205D30D
:103F0000E389834202D3451A276813E0D4E901719B
:103F100079B10B8898420CD34D88854209D3C01AD9
:103F2000496880B201EB8000B0F90050B0F902603E
:103F300000E03546681C58D0107DA17C00FB01F9DB
:103F4000217CCDE90801BBF92A804046FEF746FAFC
:103F5000C0B205FB09720790364BA17C012002AD6F
:103F60000FC5DBF818005146C37D827DCDE90023E3
:103F7000DDE908320A98FEF79AFA701C16D048F06C
:103F80000200FEF72BFA06FB09722A4BA17C0120E6
:103F900002AD0FC5DBF818005146C37D827DCDE927
:103FA0000023DDE908320A98FEF781FADBF81800F1
:103FB0005D46417D007D814214D9B8F1020F11D0D8
:103FC00088F00400FEF70AFAA869037D427D857D2A
:103FD00003FB02A102EB0A03DDE9092002FB050253
:103FE000FEF745FA0798FEF7F9F9BBF82210627C54
:103FF0001144ABF822100BB0BDE8F08F0D4880697A
:104000008069407C704702200880704780698289FF
:10401000914202D3C2898A4207D2806838B10288AD
:104020008A4204D84088884201D30120704700208A
:1040300070470000E42400202DE9F04128B1866893
:104040001EB10568B5F5807F02DD0020BDE8F08176
:104050000024074F06E056F82400FEF72FFB27F850
:104060001400641CAC42F6DB0148EFE7E4E770475C
:10407000603E0020F02070474FF4A0707047F020A1
:1040800070474FF4A0707047102070474FF4803095
:104090007047012070470120704740F2352070477B
:1040A0001F2300F01F01C0F3451210B5C0F3C42058
:1040B000C0EB0020C2EB02223F24B0FBF3F0B2FBC6
:1040C000F4F2C1EB0121B1FBF3F100EB022000EBB4
:1040D000014010BD10B50446E948B0F94C00FDF7A9
:1040E000ACFF018821804188618001888288114469
:1040F000491EA1804188C0880844401EE08010BD50
:1041000010B50446DE48B0F94C00FDF796FFC169D2
:104110002046BDE81040084710B50446D848B0F91D
:104120004C00FDF78AFF016A2046BDE810400847B1
:1041300010B5D348B0F94C00FDF77FFF406ABDE8E9
:104140001040004710B50446FEF7CAF88CB1CC48C1
:10415000B0F94C00A04201D101F0FFFE2046FDF76E
:104160006CFFB0F9180008B102F0C2F82046FDF764
:10417000B0FFBDE81040FEF7ABB82DE9FF4F81B0AE
:10418000DDE90E4BDBF83C90924602FB09F0C01DC6
:104190001D460026C708FDF761FFE10705D1C117DD
:1041A00000EB9170801000EB4000002D06DC2C38F5
:1041B000B0FBF7F06D42A84200DC0546E00708D1ED
:1041C00000230093DDE901012B46524602F061F91C
:1041D0000646002D05DCFEF77BF8002005B0BDE8A3
:1041E000F08F05FB07F02C30E10700B202D0FDF79D
:1041F00016FF01E0FDF7AAFC5FEA00081BD040466D
:10420000FDF71BFF0199018002994180A0F804A0ED
:104210000446C580FFF73AFFC4E9020726831099D8
:10422000E161119921621299C4E9091BC4F8109047
:104230000021616103E016B13046FDF74AFF4046B8
:10424000CCE72DE9F04385B005460E461746984663
:10425000DDF83090FEF744F88A4889490468B1F9DE
:104260004C0010B9886C0EC803E0FDF7E6FE1C3068
:104270000EC8A06BCDE9009002A80EC043463A4696
:1042800031462846FFF779FF0446FEF721F820461D
:1042900005B0BDE8F08338B51C46002300932346E3
:1042A000FFF7CFFF38BD2DE9F0410546FEF718F8BE
:1042B000734CB4F94C7015B901F04FFE14E0284668
:1042C000FDF7BBFE0646FDF722FBB4F84C0028B90B
:1042D0006B480822211D4E3002F0D4FDA4F84C504A
:1042E000B06AA064FEF7CCF9FDF7F2FF3846BDE8EE
:1042F000F0812DE9F74F8AB09246FDF79EFE074602
:10430000B0F91800B7F906100991D7E903B108917F
:10431000C90807F12C06079100285ED0FDF78DFE35
:104320008046002454E000200690D8F80800224679
:10433000436906A940469847B7F9041005468142EB
:1043400042D1A14600E0641CD8F80800621C436911
:1043500006A940469847A842F5D00898CDE903B68B
:10436000002305930123019300930290A4EB09031A
:104370001D465B1CB7F904200AEB09010B98FEF7F8
:1043800096F86B1C03FB0B6621E0DDE906C00CFB15
:1043900000620898CDE903B200230593012302903F
:1043A00001930B9800930AEB040160442A46FEF740
:1043B0007EF80698224628440690D8F8080006A9F8
:1043C0004369404698470546002DDED15E44641C93
:1043D00009988442A7DB0DB001E70898CDE903B640
:1043E000002305930123019302900093B7F9042061
:1043F0005146099B0B98FEF75AF8ECE72DE9FC4172
:104400005FEA00080D46164634D0FDF769FF1C48E8
:10441000B0F94C704046FDF710FE044601F09DFDDA
:1044200040F6FF70401903D1B4F90050B4F90260AE
:10443000A188681E0844ADF80400ADF80050E1887A
:10444000701E0844ADF80260ADF80600FDF75BFA97
:104450006846FDF782F806E0324629464046FFF7F7
:1044600048FFFDF753F80028F6D13846FFF71BFF49
:10447000FDF72EFFBDE8FC8103490A46BEE70000B8
:10448000E42400206401002001F0FFFF2DE9FF5F1C
:1044900089469846DDE90E171B78FA4D8346ED5C98
:1044A000C1F10804CD40F84910A845C8097B11F0B6
:1044B000030106D0012950D0022968D1B0F802A02A
:1044C00016E0F049BC4200D93C463F1B05F0010212
:1044D00030F812206D0826F8022B641EF6D1002F4A
:1044E00055D008F101029046127808248D5CE9E766
:1044F000BC4200D93C463F1BBBF1000F16D01DB992
:1045000006EB4406A1441EE0E80708D0DBF80800EB
:10451000494603685846029A9847A6F800A0B61C78
:1045200009F10109641E0ED06D08E8E715B906EB24
:10453000440608E0E80701D0A6F800A0B61C641EF7
:1045400001D06D08F2E7002F21D008F1010080466C
:104550000078CC4908240D5CCAE7506A8047C949F5
:1045600080B2BC4200D93C463F1BEA0702D03288E9
:1045700042403280B61C6D08641EF6D1002F06D072
:1045800008F101029046127808248D5CE9E7BDE845
:10459000FF9F2DE9F05F8A46DDE90A1693461F4624
:1045A0001A788B009A40D5B2B74A8146127BDDE972
:1045B0000C84C1F10200C0B212F003021AD0012A29
:1045C00079D0022A38D100295FD028090DD02909D5
:1045D00038F811002080B9F1000F06D0D9F8080092
:1045E0005A460368514648469847A41C0AF1010AF6
:1045F000761E48E039B1290938F8110024F8020B79
:1046000017F8015F761E022E10DB701006F001060F
:10461000290938F81110218005F00F0138F8111020
:104620006180241D17F8015F401EF1D1002E03D0D8
:10463000290938F811002080BDE8F09F28090DD025
:10464000280938F810002080B9F1000F06D0D9F8F9
:1046500008005A46036851464846984715F00F002F
:104660000DD038F810006080B9F1000F07D0D9F8EC
:1046700008005A4603680AF1010148469847241D7C
:104680000AF1020AB61E17F8015F022ED6DA002ED2
:10469000D2D02809D0D038F810002080B9F1000F0E
:1046A000CAD0D9F808005A46036851464846BDE8C2
:1046B000F05F1847FFE7B04200DDF0B2361AA909F3
:1046C00003D0218881F0FF0121802907A41C0D0E51
:1046D000401E10F0FF00F2D1002EADD0022017F8DE
:1046E000015FE8E72DE9FF4F87B005466648DDE941
:1046F000168B8A46B0F94C00149EFDF79EFC81464D
:10470000B0F9180008B1FDF798FC0400D9F80C00C6
:10471000069005EB0B0007900BD05B48007B8007F1
:1047200007D40A9B009352462046099B079901F043
:10473000F2FD5146079800F0CCF90746102E3AD109
:10474000002031E0079804900BEB0A0005904E48DA
:10475000DDF82490007B46463D4610F0030002D071
:1047600002281BD106E04FEA49023146284602F0F2
:1047700089FB13E0308838B128802CB1A068DDE9CE
:1047800004120368204698470498AD1C401C04900E
:10479000B61CA9F101005FEA0009EBD10698159952
:1047A000074488440BF101000A9983468842C9DB1B
:1047B0000BB0BDE8F08F082E68D100205CE018989F
:1047C00046460028079804900BEB0A0005902E48F7
:1047D000DDF82490007B3D4600F0030028D010B1A6
:1047E000022843D10CE016F8010B189931F810009B
:1047F00025F8020BA9F101005FEA0009F3D135E0C9
:10480000307850B1189931F8100028802CB1A06888
:10481000DDE904120368204698470498AD1C401C4B
:104820000490761CA9F101005FEA0009E8D11DE0BF
:1048300010B102281AD105E04A463146284602F056
:1048400021FB13E0307838B128802CB1A068DDE975
:1048500004120368204698470498AD1C401C04903D
:10486000761CA9F101005FEA0009EBD106981599C1
:10487000074488440BF101000A99834688429EDB75
:1048800096E703E0E4040108E4240020189808B93E
:10489000D4481890002517E0012E19D0022E26D0FA
:1048A000042E0CD1189A0999CDE90227CDE900B15F
:1048B00005EB0A02434620460799FFF76AFE159961
:1048C0000698884407446D1C0A988542E4DB6FE72C
:1048D00009981899CDE900B0CDE90397029105EB4D
:1048E0000A02434620460799FFF7D0FDE7E7189AEA
:1048F0000999CDE90227CDE900B105EB0A0243464B
:104900002046079900F0FDF8D9E72DE9F84F044655
:10491000B5480F4615469A46B0F94C00FDF78DFB99
:1049200080463946204600F0D4F80646281B00F1A0
:104930000109B8F91800D8F80CB018B3FDF77DFBE1
:10494000AAEB07035B1C00934B463A46214601F055
:10495000E2FC17E0A448017BC9070CD0D8F824007A
:104960004D463446804780B22188414024F8021BDE
:104970006D1EF9D104E041884A46304601F09BFAA9
:104980005E447F1C5745E5DDBDE8F88F0B46BCE76C
:104990002DE9F74FDFF850820D469246B8F94C00EA
:1049A000FDF74BFBB0F9189006465FEA090001D00D
:1049B000FDF743FB83462946009800F08AF8044639
:1049C00098F80C00F768C00716D0706A804787B265
:1049D000B9F1000F06D0DBF808002A4603685846F4
:1049E0000099984720886D1C78402080F0685545D4
:1049F0000444EDDDBDE8FE8FB9F1000F0ED0DBF809
:104A000008002A460368584600999847B8F80200FB
:104A100020806D1C3C445545F1DDEBE7AAEB050019
:104A2000401CB8F8021021803C44401EF9D1E1E757
:104A30002DE9F04106466C480F461546B0F94C008A
:104A4000FDF7FBFAB0F918403946304600F041F85E
:104A50000580002C0ED02046FDF7EFFA05462046D3
:104A6000FDF7EBFA80683A46036831462846BDE810
:104A7000F0411847BDE8F0812DE9F04107465A485A
:104A80008846B0F94C00FDF7D8FA0446B0F9185042
:104A90004146384600F01DF80646606A8047318876
:104AA00041403180002DE5D02846FDF7C6FA044686
:104AB0002846FDF7C2FA8068424603683946204618
:104AC000BDE8F0411847D5E710B500F002F80088BE
:104AD00010BD70B5044644480D46B0F94C00FDF7D2
:104AE000ACFA4288C36800F12C01AA1A92B29BB2B8
:104AF00002FB0311B0F9000001EB4401A1EB4000FF
:104B000070BD2DE9FF5F8346DDE90E068946C0F1E1
:104B10000401CCB21978400081403348DDE910A788
:104B2000007B9846CDB210F0030004D001283ED09F
:104B3000022855D116E0B44200DDF4B2361BA809B4
:104B40003AF8100027F8020BA806050E641E14F0B0
:104B5000FF04F4D1002E43D008F101000424804664
:104B60000578E8E7B44200DDF4B2361BA8090DD0A1
:104B7000A8093AF810003880BBF1000F06D0DBF826
:104B80000800494603685846029A9847A806BF1C81
:104B9000050E641E09F1010914F0FF04E6D1002E90
:104BA0001ED008F10100042480460578DAE7B442FB
:104BB00000DDF4B2361BA80903D0388880F0FF006E
:104BC0003880A806BF1C050E641E14F0FF04F2D145
:104BD000002E05D008F10100042480460578E6E7A0
:104BE000D5E4000028040108E424002010B50400E6
:104BF00004D10B48B0F94C40002C10D0FDF770FBED
:104C00002046FDF71AFAB0F9180020B1FDF715FAA1
:104C1000816889688847BDE81040FDF759BB10BD21
:104C2000E424002070B504460025FDF759FB1CB9AB
:104C30000648B0F94C4024B12046FDF7FEF9B0F922
:104C40000650FDF745FB284670BD0000E424002017
:104C500070B504000D4604D10948B0F94C40002C51
:104C60000DD0FDF73DFB2046FDF7E7F9B0F9061042
:104C7000A94200DDC580BDE87040FDF729BB70BDCD
:104C8000E424002070B504000E46154604D11248F5
:104C9000B0F94C40002C1ED0FDF722FB2046FDF75A
:104CA000CCF92DB2458036B204460680FDF7E8FC0B
:104CB000B4F9180058B1FDF7C0F9B4F904108180B7
:104CC00029B1B4F90610C18009B106804580BDE85C
:104CD0007040FDF7FDBA70BDE42400201CB501460C
:104CE0000822684602F0CEF80020FDF7FBFCBDF973
:104CF0000630BDF90420BDF90210BDF9000000F036
:104D0000EDFF6FF07F40FDF7EDFCBDF90420BDF92C
:104D10000010BDF90200921E491C401CFEF786FFE0
:104D2000BDF90620BDF90210BDF90000921E491C14
:104D3000401CFEF7A5FF4F48FDF7D4FCBDF9042049
:104D4000BDF90010BDF90600521E491C401EFEF7B9
:104D50006DFFBDF90620BDF90210BDF90400921ED9
:104D6000491C401EFEF78CFF1CBD1CB501460822E5
:104D7000684602F087F80020FDF7B4FC3E48FDF7D6
:104D8000B1FCBDF90420BDF90010BDF90200FEF729
:104D90004DFFBDF90210BDF90620491CBDF9000008
:104DA000FEF76EFF0020FDF79DFCBDF90420BDF964
:104DB0000010BDF90200521E491C401CFEF736FFD0
:104DC000BDF90620BDF90210BDF90000521E891C74
:104DD000401CFEF755FF6FF07F40FDF783FCBDF9E7
:104DE0000010BDF90420491CBDF90600FEF71EFFA6
:104DF000BDF90210BDF90620491CBDF90400FEF7FB
:104E00003FFF1E48FDF76EFCBDF90420BDF9001000
:104E1000BDF90600521E891C401EFEF707FFBDF9B2
:104E20000620BDF90210BDF90400521E891C401E67
:104E3000FEF726FF1CBD1CB5684600F0BEF96846AB
:104E4000FFF793FF1CBD10B5044600F0B6F92146EC
:104E50002046BDE810400222FEF796BD1CB568460C
:104E600000F0ABF96846FFF739FF1CBD0448FEF7B8
:104E70001EBB00005555550080808000C0C0C0009A
:104E8000880401082DE9FC47DFF8F4800646D8F8CD
:104E900010500C4691461F4615B30822214668461D
:104EA00001F0F0FFBDF80020D8F840000244ADF852
:104EB0000020BDF80220D8F844100A44ADF80220C2
:104EC000BDF804201044ADF80400BDF80600084405
:104ED000ADF8060069462846FCF750FF00284DD083
:104EE000F6B33078E0B33A4649466846FCF7E4FD4D
:104EF000BDF90230B4F904205B1EB4F90210B4F914
:104F00000000FBF793FABDF90020BDF90630521EF0
:104F1000BDF90210B4F90000FBF788FABDF90400EE
:104F2000BDF90630B4F90420BDF90210401CFBF7AE
:104F30007DFABDF90610B4F90630B4F90420491C15
:104F4000B4F90000FBF772FA484601F04BFB044647
:104F50000020FEF7A5FFB7F90220B7F9001000E026
:104F600007E0304600F0CEFF2046BDE8FC4701F0E8
:104F700039BB2046BDE8FC4700F0BABFBDE8FC875E
:104F8000E424002070B5064D01460024B5F9000068
:104F900001F0B2FA08B1B5F90040204670BD00003A
:104FA0002001002070B5054601F09CFA0AE0AC42F1
:104FB00001D1002408E02046FDF73FF8B0F91A00BF
:104FC000A84201D00400F2D1204670BD70B50C4655
:104FD000002550B14CB1FDF730F8B0F91600A042F1
:104FE00001D1012501E00028F5D1284670BD884295
:104FF00001D101207047E9E770B504460D4601F084
:1050000089FA002805D029462046BDE8704001F005
:105010008BBA70BD3EB50D460021044668460A466F
:105020000B460EC02046FDF708F80169002905D09F
:10503000ADF8044000950169684688473EBD2DE9FA
:10504000FF5F0F4690469946B0F91800DDF838A08A
:105050005AE05846FCF7F1FF0546818B44C801F43D
:10506000207080280DD0B0F5207F02EB07031DD102
:10507000104663F30F0006EB0903344663F30F0495
:1050800002E002EB0903F3E701F4A061B1F5807FD0
:1050900011D0B1F5A06F39D108EB204161F31F4069
:1050A00021145346194461F31F4407E0104663F38B
:1050B0000F00F319E1E70AEB2041EFE701B213B269
:1050C000CDE9023100141214CDE90020C91A821A68
:1050D00051EA020002D0584600F059F9039920B273
:1050E000401A029A31B2891A019A411A009BC2EB06
:1050F0002440C3EB2642821A51EA020002D05846ED
:1051000000F0A8F9B5F91A00834606E008EB204143
:1051100061F31F4021144346C4E7BBF1000F98D14F
:10512000BDE8FF9FFCF7ADB870B50546FDF7D8F8B0
:10513000FDB12846FCF781FF0446B0F91A00C0B162
:10514000A18B090704D4FCF778FF808B000710D4EB
:10515000B4F916402846FBF77EFE21462846FBF7A9
:105160003FFE2846FCF78DF800220449284601F04E
:10517000EBF9BDE87040FDF7ABB800002551000821
:105180000EB530B1222100916946FBF7E1FE02988D
:105190000EBD6FF070400EBD70B505460C46FDF7B4
:1051A0009FF835B12CB12846FCF747FF2146FCF7A4
:1051B00026F8BDE87040FDF78BB810B50446FDF742
:1051C0008FF80748B0F9000010B90648B0F93C0064
:1051D0002146FFF7E1FFBDE81040FDF779B8000078
:1051E00022010020E424002010B5040008D0FDF7BF
:1051F00077F82046FCF721FFB0F91840FDF768F872
:10520000204610BD10B5040008D0FDF769F820460F
:10521000FCF713FFB0F91640FDF75AF8204610BD11
:10522000B0F90410B0F90000081A401C7047B0F93A
:105230000610B0F90200081A401C704710B5044669
:10524000FDF74EF8204600F01FF8FCF7F6FEB0F927
:105250000410B0F900000C1A641CFDF739F8204660
:1052600010BD10B50446FDF73BF8204600F00CF8E1
:10527000FCF7E3FEB0F90610B0F902000C1A641C4A
:10528000FDF726F8204610BD002801D1FCF79FB895
:1052900070470EB502004FF0000007D002902020AA
:1052A000009069461046FBF753FE02980EBD10B5FC
:1052B0000446FDF715F82046FBF766FE0446FDF7A9
:1052C00007F8204610BD2DE9F04105460E46174669
:1052D00019E02846FCF7B1FE04463A463146FCF791
:1052E000FCFC3A46314604F10800FCF7F6FCB4F940
:1052F00018003A463146FFF7E6FF03212846FBF740
:105300003BFEB4F91A50002DE3D1BDE8F0812DE940
:10531000FC4105000E46174624D02846FCF78DFEBA
:10532000044603C83A46CDE9000131462046FCF761
:10533000D4FC3A46314604F10800FCF7CEFCB4F93F
:1053400018003A463146FFF7BEFFA08B800705D50F
:105350002046FBF7A2FD6846FBF79FFD0321284688
:10536000FBF70AFEBDE8FC8170B504000E46154649
:105370000CD02046FCF761FEB0F90010B0F9020035
:10538000711A2A1A2046BDE87040C0E770BD70B59A
:1053900004460D461646FCF7A3FF32462946204632
:1053A000FFF7B5FFBDE87040FCF792BF70B504464B
:1053B0000D461646FCF794FF324629462046FFF775
:1053C000D3FFBDE87040FCF783BF2DE9F041040036
:1053D0000D4616461FD0FCF783FF2046FFF712FF4D
:1053E000A8B1FCF72AFE07462046FCF726FE024637
:1053F000B0F90010B7F90000B2F90220081A291A12
:10540000B7F90200101A321A2046FFF780FFBDE8F4
:10541000F041FCF75DBFBDE8F081000070B586B0DB
:1054200005460E460024FCF75BFF0948B0F9000072
:1054300048B1CDE901560E21039101A9059103A9B7
:1054400001F072F80124FCF743FF204606B070BD5E
:1054500020010020F0B5074687B00D46164651EAF8
:10546000020060D0002F5ED0FCF73AFF3846FCF710
:10547000E4FD0446D0E90010CDE905100846069980
:10548000CDE903017DB1A08B010607D5800505D4C8
:10549000BDF80C00401BADF80C0004E0BDF8100096
:1054A0002844ADF810007EB1A08BC10507D540059A
:1054B00005D4BDF80E00801BADF80E0004E0BDF869
:1054C00012003044ADF8120003AA05A901A8FCF7A8
:1054D000D7FBDDE90301C4E9000101A8FBF7DDFC0E
:1054E000BDF91200BDF91A10431ABDF91000BDF93B
:1054F00018100093431ABDF90E00BDF91610421A98
:10550000BDF90C00BDF91410411A2046FFF797FDB4
:10551000214604F10800FCF7B2FA05213846FBF7F2
:105520002BFDFCF7D5FE07B0F0BD0000838B9B0779
:1055300011D5B0F900308B420DDCB0F904308B424C
:1055400009DBB0F90210914205DCB0F90600904287
:1055500001DB01207047002070472DE9F047064627
:105560000F4690469946FCF768FD04464A46414678
:10557000FFF7DCFF002814D0B4F918400DE02046F6
:10558000FCF75BFD05464B46424639462046FFF791
:10559000E4FF00B10646B5F91A400CB1BC42EED1A9
:1055A0003046BDE8F08770B504460D46FCF798FE1E
:1055B0000F482B4622460021B0F90000FFF7CDFF2F
:1055C0000446FCF785FE204670BD70B505460E46C4
:1055D0001446FCF785FE0648234632462946B0F9B4
:1055E0000000FFF7BAFF0446FCF772FE204670BDCC
:1055F0001801002070B504460D46FCF771FE124EEE
:10560000B6F90000A04201D000F010F80F48348035
:105610000570BDE87040FCF75BBE10B5FCF760FE9E
:1056200000F004F8BDE81040FCF752BE3EB5064C51
:10563000B4F90000002806D0182100916946FBF754
:1056400087FC002020803EBD1E0100203801002084
:105650002DE9FF4107460C46164600F0B7FF1F4DE7
:1056600048B901213846FFF7C5FF206828806068E7
:105670006880BDE8FF812846B5F900202168B0F9AF
:1056800002008D1A61680C1A3EB922462946384636
:1056900004B0BDE8F041FFF77ABE02A9384600F039
:1056A0007AFF3846FFF7AEFD694600F074FF2246E8
:1056B000294602A8FCF711FB324669466846FEF708
:1056C00063F9694602A8FCF759FB0028D1D02246AD
:1056D00029463846FFF75BFECBE70000A801002013
:1056E0002DE9FF410021074601A80A460B460EC0DE
:1056F000FCF7F6FDD7B3214CB4F90000874236D051
:105700001F210191ADF800000021ADF80270039156
:1057100010B101A9FBF71CFC01200390384627803B
:1057200001A9FBF715FC039E6C46212506BB05E08D
:1057300001A9384601950394FBF70AFC3846FFF7A8
:1057400061FD0700F4D1BDF900703846FFF7AFFDE9
:1057500070B105E001A9384601950394FBF7F8FB09
:105760003846FFF74FFD0700F4D101E0FFE70126BF
:10577000FCF7AEFD304604B0BDE8F081200100200A
:105780000EB5002807D0002905D0242202910092EE
:105790006946FBF7DDFB0EBD70B504000E461546ED
:1057A00019D0FCF79DFD2046FCF747FCB0F904102A
:1057B000B0F90020891AB0F90620B0F90200711A78
:1057C000101A2A1A491E521E2046FFF743FEBDE852
:1057D0007040FCF77DBD70BD10B50446FCF780FD40
:1057E0007CB12046FCF729FC818BCA0709D141F026
:1057F0000101818319490868401C08602046FBF7B5
:1058000040FDBDE81040FCF763BD10B50446FCF751
:1058100067FD7CB12046FCF710FC818BCA0709D0DC
:1058200021F0010181830D490868401E086020466F
:10583000FBF727FDBDE81040FCF74ABD70B50546F3
:105840000024FCF74DFD2DB12846FCF7F6FB808BBC
:1058500000F00104FCF73CFD204670BD340100203F
:1058600010B504000CD0FCF73BFD2046FCF7E5FB2F
:10587000818B41F004018183BDE81040FCF728BD15
:1058800010BD10B504000DD0FCF72AFD2046FCF732
:10589000D4FB818B4DF6FB7211408183BDE8104033
:1058A000FCF716BD10BD000010B50022C0F30B00C0
:1058B000B0F5006F02DDA0F500600122B0F5806F49
:1058C00001DDC0F500608311FA4C00F03F0034F8B0
:1058D0001310C0F140004143402806D004EB4303BD
:1058E0005B88C0F1400003FB001120318909484268
:1058F000002A00D1084610BD00F58060D4E7EE4BC9
:105900001A7D012A02D19A6D52681047521E02EB8D
:10591000D272521001F0B6B82DE9F84F141A0546AC
:105920005F1A884691469B464FF0000A54EA0700EA
:1059300004D141462846BDE8F84FE0E7204600F094
:1059400025FA0646384600F021FA86420ADA204651
:105950003C4607462846454680464846D946834643
:105960004FF0010A204600F011FAA04203D0644231
:105970007F424D46D84604EBD4704FEA6009002FB1
:1059800001DAC9F10009DFF830B300269BF81600F0
:10599000C8B914E007FB069090FBF4F04044BAF15C
:1059A000000F06D1DBF85810AB194A6801461846BB
:1059B00003E0DBF85820A91952689047761CA642EC
:1059C000E8DDBDE8F88F19E007FB069090FBF4F0E6
:1059D00040440090304600F01EFA70B9BAF1000F52
:1059E00005D1DBF85810A8194A68009904E0DBF8E3
:1059F0005800A919426800989047761CA642E3DD3A
:105A0000DFE72DE9FF470446AB481646027D0D4609
:105A10009846012A07D1434632462946204604B01B
:105A2000BDE8F04778E7A01BA5EB080150EA0103A9
:105A300068D0A2F1010900F0ADF900F5806C00F525
:105A40000060FFF731FF00FB09F76046FFF72CFF0E
:105A500000FB09F0002F04DAC7F5007189124942F2
:105A600002E007F50077B912002804DAC0F50070EB
:105A70008012404202E000F500708012002904DD2F
:105A80004A1C02EBD272521003E001EBD1725210A9
:105A9000491E01EBD1714B10002804DD411C01EBC4
:105AA000D171491003E000EBD0714910401EA718D6
:105AB000ADF800706F18ADF80270E71A00EBD07007
:105AC0004010ADF804702F1AF31AADF80830A8EBA7
:105AD0000000ADF80A00B018ADF80C0008EB0100AA
